:020000040100F9
:10000000000001210DB60201E1B50201C1B50201F6
:10001000E1B50201E1B50201E1B50201E1B502017C
:10002000E1B50201E1B50201E1B50201E1B502016C
:10003000E1B50201E1B50201E1B50201E1B502015C
:10004000E1B50201E1B50201E1B50201E1B502014C
:10005000E1B50201E1B00201E1B50201E1B5020141
:1000600041C50201E1B5020115AE0201E1B502018F
:1000700041B30201E1B50201E1B50201E1B50201BE
:10008000E1B502018DB1020151B0020191B302014B
:10009000E1B50201E1B5020199B10201E1B5020148
:1000A00051B3020161B30201E1B50201E1B5020100
:1000B000E1B50201E1B5020100000000000000000E
:1000C0000000000000000000000000000000000030
:1000D0000000000000000000000000000000000020
:1000E0000000000000000000000000000000000010
:1000F0000000000000000000000000000000000000
:10010000002070470388F7B5A3F57C4306460C46EC
:10011000032B4DD8DFE803F00212204391F90000D1
:1001200000F0A6FA04460120318822F089FF18B1B8
:1001300000F8054922F030FF01203AE0CB788A78B8
:10014000207802EB0322497892B22CF08FF808B1A4
:100150000024E8E71224E6E7CA798B79497903EBB2
:1001600002232279E07802EB0122A178657801EB85
:1001700000212078E77A00EB0520A57A9BB205EBF9
:100180000725ADB20195657A247A92B204EB052475
:10019000A4B2009489B280B22DF044F9D7E7087870
:1001A0002CF030F90028D5D060782CF047F9CEE754
:1001B000002003B0F0BD00002DE9F047A34E86B04B
:1001C000A3482BF01DFD304624F0F0FC382206F148
:1001D0000C0102202BF020FD38220120B1182BF059
:1001E0001BFD382206F13F0106202BF015FD1022E1
:1001F000ADF8042008228DF8062020220B23ADF84C
:1002000008208022042740F20D113371738CADF861
:100210000C20727B1C338DF80E208DF81220ADF867
:10022000143096F82020F37FADF81010134496F8A0
:1002300026200DEB0701134496F8272005201344D0
:100240008DF816308DF80A7029F0D8FE80B229F0AA
:10025000A3FF2AF043F82AF0AFF900F065F929F07E
:10026000ABFF804629F0AEFF0446794829F0FCF840
:1002700022464146384603F05BFC08EB0009A4EB3C
:10028000000A054652464946384602F0ADFF05448D
:10029000AAEB000209EB0001384603F0A3F8471966
:1002A000304624F0AFFCB57FB844E41B35B121469D
:1002B000404624F0F1FD05468044241A214640467C
:1002C00024F0A3FD241A804421460544404624F02E
:1002D000B2FD241A804481462146404624F0D1FDD7
:1002E000241A804482462146404624F0B6FD3D440F
:1002F000211A0746404424F0EFFD00244D445544A4
:100300003D44054429F0B6F802F09EFC00F046FC9E
:1003100002F02CFB01F08EFA02F044FC01F054F8DC
:1003200001F072F801F08EFC2BF0DCFF02F004F813
:1003300002F09AF901F02AFD01F0ECFD03F0D0FB88
:10034000444829F0BFFF29F05DFD24F057FD24F05B
:10035000B9FD24F0A9FD24F067FD24F0ACFD24F0E4
:10036000C4FD24F0C9FD24F052FD24F0ADFD24F0BD
:10037000B8FD24F07DFD24F069FD24F05EFD24F03D
:10038000C2FD24F080FD24F06CFD24F083FD24F0F8
:10039000AAFD314829F096FF24F03AFC2F4829F0B5
:1003A00091FF328D718C29F063F923F081FF24F0E5
:1003B0008BF824F039F823F0ABFF24F095F824F003
:1003C00009F823F097FF24F06FF824F00FF923F0D9
:1003D0007FFF24F049F823F0ABFF24F01DF824F050
:1003E000F5F824F0DFF823F0D5FF23F0B3FF23F076
:1003F000C1FF23F0DFFF24F0B5F8194829F062FFB0
:1004000024F084F824F078FA164823F04BFF2846AD
:1004100029F0C2FE01A80194ADF8084024F076FD51
:10042000042168462BF0A4FD684627F027FD012231
:1004300000214FF4003024F00BFE0B4829F05EFF42
:1004400029F068FF204606B0BDE8F087A80100212A
:1004500098010021259E0201B14C02019D960201E6
:100460007D4B02010501000101010001014B1878DB
:10047000704700BF00000720014B1970704700BF94
:1004800000000720012070470122014B5A6070478D
:100490000020014138B5C400343420462FF0A8FEB6
:1004A000054618B1224600212FF0D9FE284638BD56
:1004B0002EF0EEBD70B50E46CAB1541EA0B229F0A2
:1004C00095FE054698B12246711C2FF0A1FE3378A7
:1004D000022B0ED0052B05D0012B08D100212A4676
:1004E000084602E02A460321002029F02DF90020C9
:1004F00070BD2A460121F7E7C30703D5024B5868B0
:100500002EF05CBC704700BF3002002148F29C63B3
:10051000C360044B436003F554730360202383607E
:10052000704700BF048007201FB56846FFF7EEFF45
:100530000298FFF7AFFF044C20600298FFF7AAFF74
:10054000606004B010BD00BF3002002130B5294BFF
:100550008BB004AC93E80300002284E80300264932
:1005600007202AF02BFD25482AF044FD06A8FFF7B6
:10057000CDFF20462FF018FB099B2148214C4361F9
:100580002FF0F4FA2246204920482FF0BBFA2268C7
:1005900093680BB102F10C0304201D4A0699906088
:1005A0001062012051601B49BDF820400D68496868
:1005B000156091611849079D8861022053619481FB
:1005C000D362D5619484CA620022886213480862AB
:1005D000009213482FF054F9124B134A0293134B15
:1005E0000F4901934FF0FF33114800932EF0D0FCD8
:1005F0000BB030BDC0120301F9040001C8120301A1
:1006000000000021EC010021A0120301AA12030145
:10061000E002002130020021100300214C130301ED
:1006200038020021B1040001B2120301B504000137
:10063000F0010021022907B5184603F1FF3310D15C
:10064000042100F8011C012108480A44019100928C
:10065000D0E909122EF0E6FB03B05DF804EB28F0B8
:10066000F3BF01290CBF02210521EAE7F0010021B7
:10067000024B83F87A000020704700BFC05300216E
:100680002BF0B0BA2DE9F8431C46D0F82890C56885
:1006900007460E46904628F0A7FF99F80D302C44E7
:1006A000022B04440DD0032B0DD0012B00D1283494
:1006B000306C3D690319AB4208D935640020BDE8B0
:1006C000F8831834F4E704F5A874F1E77B682D1A71
:1006D00063B14146986828F08DFF854228BF0546E2
:1006E000AC4203D9336C2B443364E7E7281B4FF447
:1006F0007A75044B1B689C886C43A04228BF204637
:10070000DDE700BFA85600211FB501238DF8043096
:10071000002301A8CDE902332BF0E2F905B05DF822
:1007200004FB1FB5002301A8CDE9013303932BF08F
:10073000D7F905B05DF804FB2DE9F8430446884677
:10074000866A2BF0F5FC05460146A06806F1900785
:1007500028F050FF78B9A368DFF88C90C9F87C3096
:1007600028F042FF2844A060D9F87C10284628F0E1
:1007700041FFC6F8D000D6F89C300BB12046984710
:10078000394600232046A268FFF77CFF074618B9C8
:10079000BDE8F84328F0FCBE134DA3684046EB6764
:1007A0002BF02AF9114BC5F88C70C5F88030104B2E
:1007B00005F18000C5F88430A368C5F88830A360CF
:1007C0002BF086F9002385F87830D6F8943043B1C1
:1007D000FFF79AFFD6F890002721BDE8F8432BF0E9
:1007E000CFB9FFF79EFFF5E764060021AD0A0001CF
:1007F000910800012DE9F84380460C4628F0D2FE0E
:10080000064618B101263046BDE8F8832BF090FC6F
:100810001D4D8146E96F28F0EDFE236C03442364EF
:10082000C5F87C9028F0E0FE4A4603462146404643
:10083000FFF728FF07460028E4D0636A53B1024659
:1008400049464046984728B10122D8F8283083F815
:10085000C020D8E7D5F87C8028F0C6FE4044C5E922
:1008600022070A482BF034F9002385F878306368B2
:1008700033B1FFF749FF272120682BF081F9C2E748
:10088000FFF74FFFF7E700BF64060021E4060021F1
:100890002DE9F04F87B09A469DF8403003910293BE
:1008A000934607462BF044FCDFF8F491C9F80000AA
:1008B00028F068FEDDE90231846A8046D4F8BC5035
:1008C000ADB194F8C020012A11D1CDE900A30A46A8
:1008D0005B463946D4F8B000A847012804D100236C
:1008E000C4F8B03084F8C03007B0BDE8F08F6D4A6E
:1008F0006D4D92F87860701C82F8780076B1022E07
:1009000000F08680AC8C2BF013FCD9F80030C01AB4
:10091000844240F2B580A88CA884E5E707B3FB1EAB
:10092000012B40F2B680042F68D06FD833460126E1
:10093000032F5DD032461E46EB690133EB6133462F
:10094000164643B117F0FB0F46D0404604F1900124
:10095000FFF750FF0646002ED4D028F029FED1E73D
:1009600084F8C31084F8C4303A46C4E932BAD4F8E3
:10097000900004F1D80304F1780102F067FA00282E
:1009800034D04046D4F8A030D4F8901098470028CE
:100990007DD06E8C2BF0CCFBD9F80030C01A86428B
:1009A0001DD9688C94F8C1306884ADF81030D4F843
:1009B00094300593FFF7A8FE012104A82BF0C2F89C
:1009C000D4F8A4301BB14046D4F8901098472B6857
:1009D00001332B60002F95D02BF002F9B5E72BF0F7
:1009E000A7FBD9F80030C01A80B2DBE70127EEE799
:1009F000AA680132AA60002BA7D1ACE733460126D2
:100A00006A6801326A60002BE6D1A4E7012293E70D
:100A10006FB1FB1E012B1ED9042F4FF000034FF0C6
:100A2000010629D022D9EA690132EA6189E73A460A
:100A3000D4F8980004F1D80304F1780102F006FA22
:100A400028B14046D4F8AC30D4F8981098472B69B8
:100A500001332B61C0E7D4F8AC3000214046984701
:100A6000042F4FF001034FF0000605D0032FDAD119
:100A7000AA690132AA61BEE76A6901326A61C2E706
:100A80002BF056FBD9F80030C01A80B244E701279A
:100A900096E7042F4FF001037FF44AAFB0E700BFA1
:100AA000E805002164060021400300212DE9F843F8
:100AB00081462BF03DFB364E306028F063FD856AA1
:100AC0000746D5F8B83083B195F8C020012A0CD17B
:100AD0004946D5F8B0009847012804D10023C5F84D
:100AE000B03085F8C030BDE8F8832A4B2A4C93F823
:100AF000788008F10102B8F1010F83F878202CD139
:100B0000B9F1000F3FD13846D5F8A830D5F8941088
:100B1000984790B1B4F820802BF00AFB3368C01AD4
:100B2000804524D9238C2384FFF7FBFD2721D5F8AA
:100B300098002BF04BF84FF00008E3680133E360B6
:100B4000B8F1000F09D02BF04BF8384605F19001B1
:100B5000FFF750FE08B128F02BFDE58C2BF0E8FAEA
:100B60003368C01A854208D9E08CE084BBE72BF0DB
:100B7000DFFA3368C31A9BB2D5E72BF0D9FA336892
:100B8000C01A80B2F1E7E3690133E361E3E700BF34
:100B9000E8050021640600214003002108B5022079
:100BA000054A064902F08AF8BDE8084028220021DB
:100BB00003482FF054BB00BF810600013907000134
:100BC0004003002130B50446044D0FCD0FC40FCDB6
:100BD0000FC495E8030084E8030030BD4003002102
:100BE0001FB5002301A8CDE9013303932AF078FF54
:100BF00005B05DF804FB1FB501238DF80430002318
:100C000001A8CDE902332AF06BFF05B05DF804FBC3
:100C100070B50546866A08462AF0EEFE124C134B64
:100C200004F18000C4F88030114BC4F88430D6F849
:100C3000AC30C4F88C30AB68C4F88830AB602AF0B4
:100C400047FF002384F87830D6F8903043B1FFF79F
:100C5000D2FFBDE8704040F2011106482AF090BF73
:100C6000FFF7BEFFF5E700BF64060021AD0F0001EE
:100C7000711300016803002170B50546866A0846B5
:100C80002AF0BAFE0D4C0E4B04F18000C4F88430FB
:100C9000D6F89830C4F88C30AB68C4F88830AB60B4
:100CA0002AF016FF002384F87830FFF799FFBDE89B
:100CB000704040F2011103482AF062BF640600212F
:100CC000C90C0001A00400212DE9F04F85B08B462E
:100CD0009DF838109A460392029106462BF028FAA6
:100CE000DFF84882DFF84892C8F8000028F04AFC94
:100CF000DDE9021299F878300746856A8D4C83B198
:100D0000032B00F09580258C2BF012FAD8F80030D8
:100D1000C01A854240F2FD80208C208405B0BDE8D9
:100D2000F08FDEB1F21E012A40F2FA80042E73D059
:100D30007CD81A460123032E68D019461346A269AF
:100D40000132A2611A460B46002A6CD016F0FB0F46
:100D500001D12AF045FF28F02BFCD4E7032389F8C2
:100D600078300123C5E92B2A85F8B430324685F85E
:100D7000AB10D5F89030704985F8AAB09847064670
:100D800078B328462AF038FE564409F18000C9F8A5
:100D900088602AF09DFEA68B2BF0CAF9D8F80030A7
:100DA000C01A864216D9A08BA083FFF719FF40F224
:100DB000011161482AF0E4FE3846D5F894305F49C5
:100DC0009847B0FA80F04009236801332360002877
:100DD00099D0BEE72BF0ACF9D8F80030C01A80B239
:100DE000E2E7D5F89C2052B1D5F8A0603EB195F865
:100DF000A830514600933846D5F8A430B04738465D
:100E0000D5F894304C4998470120DDE7A1680131BD
:100E1000A160002A9FD106E01A46012361680131D2
:100E20006160002A95D1002B95D16CE7012186E7FE
:100E3000D5F89030AEB1F21E012A52D932460021C7
:100E40009847D5F89430002138469847042E4FF043
:100E500000024FF0010358D051D9A1690131A161BD
:100E600072E7324685F8B46085F8AB1085F8AAB011
:100E700031499847064668B328462AF0BDFD5644D6
:100E800009F18000C9F888602AF022FEA68B2BF0B9
:100E90004FF9D8F80030C01A864214D9A08BA0832D
:100EA000FFF79EFE40F2011123482AF069FE384602
:100EB000D5F8943021499847B0FA80F04009E368AA
:100EC0000133E36083E72BF033F9D8F80030C01A20
:100ED00080B2E4E73846D5F89430174998470120A6
:100EE000EDE7324600219847D5F894300021384686
:100EF0009847042E4FF001024FF0000305D0032E57
:100F0000ABD161690131616183E7216901312161FF
:100F100087E72BF00DF9D8F80030C01A80B2FCE654
:100F2000042E4FF001027FF406AF77E7E8050021B9
:100F300064060021A4050021A0040021680300210B
:100F400070B5164B93F878506A1C012D83F8782001
:100F500015D1134CE1B9A68D2BF0EAF8114D2B6891
:100F6000C01A86420ED9A08DA085FFF739FE40F247
:100F700001110D482AF02AFEE3680133E3600025E1
:100F8000284670BD2BF0D4F82B68C01A80B2EBE76E
:100F9000A36A0133A36228F00BFBF1E7640600218A
:100FA0006C040021E80500216803002170B50446A7
:100FB0002BF0BEF80B4D286028F0E4FA21460A4CCD
:100FC000FFF7BEFF668E2BF0B3F82B68C01A86427F
:100FD00002D9608E608670BD2BF0AAF82B68C01A0B
:100FE00080B2F7E7E80500216C0400212DE9F74FF6
:100FF000DFF87C920E4699F878408046022CDDF8A6
:1010000030A09DF83410856A00F0C480032C00F0F5
:101010003981002C40F09E81964F06B3F31E012BC0
:1010200040F29A81042E00F0AA8000F2B18023469B
:101030000124032E00F0968022461C46BB6A013331
:10104000BB6223461446002B00F0928016F0FB0F83
:1010500001D12AF0C5FD28F0ABFA01248BE0C5E9E7
:101060002D3A85F8B210D5F89430834985F8B1202F
:1010700098470446002862D0D5F89030002B5ED007
:101080000123B7F82EB089F878302BF051F87B4E59
:101090003368C01A83454CD9FB8DFB8595F8A83081
:1010A000ADF80030D5F890300193FFF7A4FD012191
:1010B00068462AF047FDD5F8983013B140466E498E
:1010C0009847002C4CD1D5F8A030002B40D040469A
:1010D00069499847044600283AD0032389F87830B4
:1010E0002AF07EFD28462AF087FC54446448C9F85B
:1010F00088402AF0EDFCBE8D2BF01AF85F4C236877
:10110000C01A86421ED9B88DB885FFF769FD40F236
:10111000011159482AF034FD4046D5F8A43056490B
:101120009847B0FA80F464093B6801333B6014B31C
:101130008FE72AF0FDFF3368C31A9BB2ADE72AF0B0
:101140004FFDB8E72AF0F4FF2368C01A80B2DBE74E
:10115000D5F8A43013B14046474998470124E3E746
:101160000024E1E7BA680132BA60002B7FF473AF64
:10117000002C7FF470AF204603B0BDE8F08F23460B
:1011800001247A6801327A60002B7FF462AFEFE7C6
:10119000012253E70324374F89F878406EB1F31EDC
:1011A000012B51D9042E4FF000034FF001045BD006
:1011B00054D9BA6A0132BA6245E7C5E92D3A85F8D1
:1011C000B210D5F89C302C4985F8B1209847D5F855
:1011D000A0308BB3404628499847044660B3284660
:1011E0002AF00AFC544409F18000C9F888402AF02A
:1011F0006FFCBE8D2AF09CFF204C2368C01A8642EB
:1012000014D9B88DB885FFF7EBFC40F201111A48EC
:101210002AF0B6FC4046D5F8A43017499847B0FAF2
:1012200080F464093B6901333B6180E72AF080FF69
:101230002368C01A80B2E5E7D5F8A43013B1404660
:101240000D4998470124EDE7D5F89C3000219847D7
:10125000042E4FF001034FF0000405D0032EA8D157
:10126000BA690132BA6180E77A6901327A618BE743
:10127000640600216C04002168030021E8050021B8
:10128000E4060021D5F8A030364FC6B1F21E012A7F
:101290004ED900219847D5F8A43013B1002140461B
:1012A0009847042E4FF000034FF001044ED080D831
:1012B000032E7FF47EAF7A6A01327A6255E72A49BB
:1012C0009847044660B328462AF096FB544409F137
:1012D0008000C9F888402AF0FBFBBE8D2AF028FF69
:1012E000224C2368C01A864214D9B88DB885FFF7FE
:1012F00077FC40F201111C482AF042FC4046D5F828
:10130000A43019499847B0FA80F46409FB690133A5
:10131000FB610CE72AF00CFF2368C01A80B2E5E7F6
:10132000D5F8A43013B140460F4998470124EDE7A2
:1013300000219847D5F8A43013B1002140469847C2
:10134000042E4FF001034FF00004B1D13A6A01328C
:101350003A6219E700240EE7042E4FF001037FF4F0
:1013600068AE0EE76C04002168030021E805002147
:101370002DE9F3410E461746984604462AF0D8FE5A
:101380000F4D286028F0FEF89DF8203021460D4CC6
:101390003246CDE900833B46FFF728FE268E2AF031
:1013A000C7FE2B68C01A864204D9208E208602B060
:1013B000BDE8F0812AF0BCFE2B68C01A80B2F5E7C8
:1013C000E80500216C04002108B50022062005492B
:1013D00001F074FCBDE808403422002102482EF0E0
:1013E0003EBF00BF110C00016C04002130B5044663
:1013F000044D0FCD0FC40FCD0FC40FCD0FC42B68FC
:10140000236030BD6C04002108B500220920054985
:1014100001F054FCBDE808402422002102482EF0CF
:101420001EBF00BF790C0001A405002130B50446A1
:10143000034D0FCD0FC40FCD0FC42B68236030BDFB
:10144000A405002170B50446866A08462AF0D4FA3D
:101450000F4DD6F8AC3005F18000C5F88C30A3688C
:10146000C5F88830A3602AF033FB002385F8783074
:10147000D6F8903043B1FFF7BEFBBDE8704040F2B4
:10148000011104482AF07CBBFFF7AAFBF5E700BF77
:1014900064060021680300212AF0A4BB1FB50023C5
:1014A00001A8CDE9013303932AF01AFB05B05DF8DA
:1014B00004FB00002DE9F04F85B080460E469346B0
:1014C000994628F06FF8074668B93E4CD8F828A02E
:1014D00094F87A3094F87950032B06D118B184F837
:1014E0007A3084F87950012754E0022D92BF2A46C1
:1014F000033DEAB202F125018AF80110F17E551C84
:1015000041FA02F20133D2074FF00100DBB2EDB233
:10151000E2D584F87A3084F87950B9F1000F04D11B
:101520001BF0FB0F01D12AF05BFB50462AF064FA56
:10153000B9F1000F04D0D8F80830C4F8883009E0B9
:1015400073685BB32AF0F4FD054628F04DF8284493
:10155000C4F88800002384F87830F3681BB1404653
:10156000D4F88810984718482AF0B2FA736833B351
:1015700001238DF80430002301A8CDE902332AF0BD
:10158000AFFA337E0121ADF80430336801A802932D
:101590002AF0AEFA384605B0BDE8F08F327E9AF8F0
:1015A0000E109AF80C0026F070FF054628F01CF883
:1015B000284426F0D1FFD4F888300344BDE7FFF774
:1015C0006DFFDEE764060021E40600210F4B104AA0
:1015D00010B5816AC3F880200E4A91F8AA40C3F87A
:1015E00084200422C3F88C20002283F8794083F8F9
:1015F000782083F87A2090310123FFF75BFF18B140
:10160000BDE8104027F0C4BF10BD00BF6406002134
:1016100059170001191600012DE9F34799460546AF
:101620002AF086FDDFF82481494CC8F8000027F035
:10163000A9FF484A866A92F878300746591C012B60
:1016400082F8781068D106F1900A002D4BD1C6F8C7
:10165000AC902A46D6F8940006F1B00306F1780162
:1016600001F0F4FB814668B33846D6F8A030D6F8CE
:101670009410984730B3B4F81A902AF059FDD8F86E
:101680000030C01A814516D9608B6083FFF706FFD2
:1016900096F8A9300121ADF80030D6F898306846A8
:1016A00001932AF04FFAD6F8A430ABB13846D6F8F9
:1016B0009410984710E02AF03BFDD8F80030C01A8B
:1016C00080B2E2E7002351461A463846FFF7F2FEA1
:1016D0000546B9F1000FE6D1636801336360DDB1FF
:1016E0002AF07EFA10E000232A465146FFF7E2FE78
:1016F000042D1ED001D8032D09D063690133636125
:1017000050B115F0FB0FEBD027F052FF04E0E36877
:101710000133E3600028F7D1A58B2AF009FDD8F842
:101720000030C01A85420AD9A08BA08302B0BDE860
:10173000F087A3680133A3600028D1D1ECE72AF039
:10174000F7FCD8F80030C01A80B2EEE7E8050021B7
:10175000C8050021640600212DE9FF4107462AF053
:10176000E7FC314E314C306027F00CFF2FB163693C
:101770000133636127F01CFF0CE02D4BD0F828806B
:1017800093F8785008F190016A1C83F878206DB1C5
:10179000022D39D0E58B2AF0CBFC3368C01A854284
:1017A0003BD9E08BE08304B0BDE8F081D8F89430F9
:1017B00023B3278B2AF0BCFC3368C01A874217D9A1
:1017C000208B01238DF804300023208301A8CDE96C
:1017D00002332AF085F92421D8F894002AF0F6F98A
:1017E000236801332360002DD4D02AF0F9F9C1E732
:1017F0002AF09EFC3368C01A80B2E2E72B462A46E4
:10180000FFF758FE0546EBE73B463A46FFF752FE28
:101810002369054601332361E5E72AF089FC336833
:10182000C01A80B2BEE700BFE8050021C80500214C
:101830006406002108B50320054A064901F03EFA76
:10184000BDE808402022002103482EF008BD00BF5B
:1018500099140001CD150001C805002130B50446DA
:10186000034D0FCD0FC495E80F0084E80F0030BD85
:10187000C80500211FB5002301A8CDE9013303935A
:101880002AF02EF905B05DF804FB00002DE9F047C1
:1018900089469A4606462AF04BFC5A4F5A4D386004
:1018A00027F070FE594A846A92F878308046591CB5
:1018B000012B82F8781040F08F80002E7AD19DF8AD
:1018C000203084F8FA9084F8D13094F8F830C4F8D5
:1018D000D4A004EB8303D3F8F01000293FD0D4F850
:1018E000C430984700283AD0B5F81E902AF020FC62
:1018F0003B68C01A814528D9E88BE883FFF7BAFF17
:10190000D4F8C8203AB194F8F830404604EB830389
:10191000D3F8F010904794F8F83094F8F920013398
:10192000DBB29A4284F8F83015D904EB830340F215
:101930000111D3F8F0002AF023F96B6801336B60D2
:10194000002E49D02AF04CF944E02AF0F1FB3B6824
:10195000C01A80B2D1E7002384F8F830EDE7D4F85C
:10196000A01009B90126E8E74046D4F8C4309847EA
:101970000028F7D0B5F81E902AF0DAFB3B68C01AB1
:10198000814511D9E88BE883FFF774FF022104F148
:10199000A4002AF0D7F8D4F8C830002BCDD04046A8
:1019A000D4F8A0109847C8E72AF0C2FB3B68C01AD9
:1019B00080B2E8E7042E1AD001D8032E07D0AB6915
:1019C00016F0FB0F03F10103AB6103D1BAE7EB683B
:1019D0000133EB6027F0ECFD2C8C2AF0A9FB3B686F
:1019E000C01A844207D9288C2884BDE8F087AB68E8
:1019F0000133AB60A6E72AF09BFB3B68C01A80B2BC
:101A0000F2E700BFE8050021EC0500216406002193
:101A1000F8B5CB6B06460C460BB90120F8BD012189
:101A2000984705460028F8D0B06A29F0E5FF11482C
:101A3000114ED0F8883080302B44104D83602AF04E
:101A400047F8AF8B2AF074FB3368C01A87420AD973
:101A5000A88BA883FFF70EFF04F1240002212AF0CF
:101A600047F80020DAE72AF063FB3368C01A80B237
:101A7000EFE700BF64060021E8050021EC05002126
:101A80002DE9FF4705462AF053FB464F464C386088
:101A900027F078FD81462DB1A3690133A36127F0BA
:101AA00087FD1AE0DFF80481866A98F8785006F11D
:101AB000900A022D4CD0032D62D075B9D6F8A03013
:101AC000BBB90323514688F87830FFF7A1FF0546DC
:101AD000236801332360002D60D1658C2AF028FB38
:101AE0003B68C01A854253D9608C608404B0BDE85D
:101AF000F08796F8F83006EB8303D3F8F00028B1AE
:101B0000D6F8FC30002BE3D09847E1E7012388F8B2
:101B10007830B4F81C802AF00BFB3B68C01A804573
:101B200010D9A08B01238DF804300023A08301A8D5
:101B3000CDE9023329F0D4FF2421D6F8A0002AF001
:101B400045F8C5E72AF0F4FA3B68C01A80B2E9E725
:101B5000032388F878300E2296F8D110707BD6F8DF
:101B6000D45026F092FC9635054451464846C8F8B4
:101B70008850FFF74DFF2369054601332361AAE72B
:101B80005146FFF745FF6369054601336361A2E7EC
:101B90002AF0CEFA3B68C01A80B2A6E72AF020F8F5
:101BA0007DE700BFE8050021EC0500216406002167
:101BB000F0B51F4B1F4C866AC4F880301E4B85B0B1
:101BC000C4F884300423C4F88C3000230F46054643
:101BD000A4F8783027F0E6FC014630BBD6F8CC30CC
:101BE0000BB128469847384629F006FFAB68002518
:101BF0001248C4F8883084F8785029F069FFD6F884
:101C0000A0307BB1012301A8CDE902558DF8043045
:101C100029F066FF022106F1900005B0BDE8F04012
:101C200029F066BFFFF726FEF4E705B0F0BD00BF60
:101C3000811A0001640600218D180001E4060021CC
:101C4000FFF7B6BF08B500220720074901F036F8B4
:101C500000220820054901F031F8BDE8084024229F
:101C6000002103482EF0FBBAB11B0001411C00010A
:101C7000EC05002130B50446034D0FCD0FC40FCD48
:101C80000FC42B68236030BDEC05002129F0AABFEA
:101C90002DE9F0410F46984605462AF049FA224CB4
:101CA000224E94F878303060013384F8783027F091
:101CB00069FC0023826AD4F89410C2F89C8082F8F0
:101CC000A070C4F89430D2F898302A46984727F08C
:101CD00069FC18B129F084FF27F06AFC032D144C2D
:101CE00010D0042D12D0ADB9236801332360258BA9
:101CF0002AF01EFA3368C01A85420FD9208B208340
:101D0000BDE8F081A3680133A360F0E763680133A5
:101D10006360ECE7236901332361E8E72AF008FAFE
:101D20003368C01A80B2EAE764060021E8050021A2
:101D30001006002170B50446866A084629F05CFE4C
:101D4000104D114B05F18000C5F88430A368C5F82B
:101D50008830D6F89030C5F88C3029F0B9FE0023D1
:101D6000204685F87830D6F89430984727F01AFC4A
:101D700030B127F007FC18B1BDE8704027F018BC5F
:101D800070BD00BF64060021911C000108B50C2045
:101D9000054A064900F092FFBDE808401C220021D8
:101DA00003482EF05CBA00BF8D1C0001351D0001F8
:101DB000100600212DE9FF411A4E0D46A6F890109D
:101DC0000221C6F89400044601A8CDE902239DF83B
:101DD00028708DF8041029F083FE96F8783003B14E
:101DE00037B12946204604B0BDE8F04129F0C8BE0D
:101DF0000D4E0E4FB6F814802AF09AF93B68C01ABF
:101E0000804508D9B38A29462046B38204B0BDE88C
:101E1000F04129F0DBBE2AF08BF93B68C31A9BB274
:101E2000F1E700BF6406002110060021E80500214B
:101E300070B50C460546074E29F0D2FE2046C6F87E
:101E4000885029F0D9FD06F18000BDE8704029F0E6
:101E50003FBE00BF6406002129F0C4BE70B5044631
:101E60002AF066F9144A154D92F87830286001334B
:101E700082F8783027F086FB836A2146104CD3F82D
:101E800094309847E3680133E36027F08BFB18B187
:101E900029F0A6FE27F08CFB668B2AF049F92B6807
:101EA000C01A864202D9608B608370BD2AF040F967
:101EB0002B68C01A80B2F7E764060021E80500210C
:101EC0001006002170B50446866A084629F094FD84
:101ED0000E4D0F4B05F18000C5F88030A368C5F8A2
:101EE0008830A36029F0F4FD0023204685F878307F
:101EF000D6F89030984727F055FB30B127F042FBD9
:101F000018B1BDE8704027F053BB70BD64060021D6
:101F10005D1E000108B50D20054A064900F0CEFE01
:101F2000BDE808401C22002103482EF098B900BFEC
:101F3000591E0001C51E0001100600212DE9FF41B8
:101F400004460D4693B1022102928DF8041001A8B7
:101F5000039329F0C5FD134B93F878304BB929460C
:101F6000204604B0BDE8F04129F0C2BDCDE90133FF
:101F7000EDE70D4E0D4FB6F816802AF0D9F83B6804
:101F8000C01A804508D9F38A29462046F38204B056
:101F9000BDE8F04129F0D6BD2AF0CAF83B68C31A63
:101FA0009BB2F1E76406002110060021E80500213C
:101FB00030B50446034D0FCD0FC495E8070084E803
:101FC000070030BD100600211FB501238DF8043035
:101FD000002301A8CDE9023329F082FD05B05DF8A8
:101FE00004FB00002DE9F04104460D4627F0CAFA33
:101FF000836A1B780A2B0BD1124B93F878303BB9CC
:10200000FFF7E2FF29462046BDE8F04129F070BD08
:102010000D4E0E4FB6F816802AF08AF83B68C01AAB
:10202000804509D9F38AF382FFF7CEFF294620467F
:10203000BDE8F04129F086BD2AF07AF83B68C31A62
:102040009BB2F0E7640600212C060021E805002180
:1020500070B50C4E04460D46C6F89400A6F89010D4
:1020600027F090FA836A1B780B2B0AD196F8783008
:102070003BB9FFF7A9FF29462046BDE8704029F08B
:102080007FBD70BD6406002130B50446034D0FCD01
:102090000FC495E8070084E8070030BD2C06002136
:1020A00070B50D46044629F09DFD094BD3F89410F8
:1020B00039B100222046C3F894200222D5F8AC3072
:1020C00098472046D5F8A430BDE87040184700BFB7
:1020D000640600212DE9F04104460D46876A27F089
:1020E00061FA0646E8B9284629F086FC0E4D0F4BEA
:1020F00005F18000C5F880300D4BC5F88430A36829
:10210000C5F88830A3600423C5F88C3029F0E0FCC2
:10211000D7F8983085F878601BB12046BDE8F041CB
:102120001847BDE8F08100BF640600213521000199
:10213000092200012DE9F04385B0054629F0F8FF9A
:102140002E4F2F4E386027F01DFAD0F828902946E0
:10215000D9F8A83080469847D6F89410294C002921
:102160003AD055BBA58A29F0E3FF3B68C01A8542E7
:102170001DD9A08A0023A08201A8CDE901330393D1
:1021800029F0AEFCB6F89010D6F8940029F01EFDA8
:10219000E3680133E360658B29F0CAFF3B68C01A2E
:1021A000854213D9608B608305B0BDE8F08329F0C8
:1021B000BFFF3B68C01A80B2DCE700230222C6F8EA
:1021C00094304046D9F8AC30984708E029F0B0FF89
:1021D0003B68C01A80B2E6E70DB929F001FD96F818
:1021E000783023B927F0E4F9012386F87830002D00
:1021F000CED0236901332361CDE700BFE80500217C
:10220000640600212C0600212DE9F3470F46054600
:1022100029F08EFFDFF81481C8F8000027F0B2F92A
:102220000023866A9DF8282086F8B070404F8DF80C
:102230000730D7F8941086F8B120C7F894302A46B2
:10224000D6F8AC300446984727F0ACF98146002810
:1022500037D04FF0010927F0A5F940EA0900C0B2D4
:1022600080B1062D06D80123AB4013F0510F01D0E9
:1022700029F0B6FC97F8783023B927F099F90123B3
:1022800087F878309DF8073023B929462046D6F8DC
:10229000A0309847032D274C35D0042D37D0002D82
:1022A00039D1236801332360258B29F041FFD8F809
:1022B0000030C01A854232D9208B208302B0BDE89D
:1022C000F0872046D6F890300DF1070198478246F6
:1022D0000028BED029F084FCD6F894300DF1070117
:1022E00020469847A06A29F087FBD7F88800504419
:1022F000C7F8880007F1800029F0EAFB2046D6F8ED
:102300009C309847A7E7A3680133A360CCE76368D4
:1023100001336360C8E7236901332361C4E729F00F
:1023200007FFD8F80030C01A80B2C6E7E8050021E0
:10233000640600212C06002108B50A20054A06493A
:1023400000F0BCFCBDE808401C22002103482DF031
:1023500086BF00BFA1200001D52000012C0600216E
:1023600070B50D46044629F03DFC094BD3F8941096
:1023700039B100222046C3F894200222D5F8AC30AF
:1023800098472046D5F8A430BDE87040184700BFF4
:102390006406002101232DE9F041876A054687F88C
:1023A000B03083680846C7F8B8300F4C0E4629F0A5
:1023B00023FB0E4B04F18000C4F880300C4BC4F8B2
:1023C0008430D7F8B830C4F88830D7F8C030C4F8B3
:1023D0008C3029F07DFB0023284684F87830D6F82D
:1023E0009830BDE8F04118476406002175250001CA
:1023F000552400012DE9F04106460C46904627F091
:10240000D1F8074618B101273846BDE8F0814146AA
:1024100030462368984705460028F4D029F0E0FBB1
:102420004146636830469847B06A29F0E5FAA36AE6
:1024300007482B44A362B360C0F88830236B803018
:10244000C36029F045FB3046E3689847DCE700BFEE
:10245000640600212DE9F04385B00F4698460446F6
:1024600029F066FE404E306027F08CF8856A9DF8B2
:10247000303085F8BC7014F0FB07814685F8BD301C
:1024800007D1C5F8B88001A8CDE90177039729F0F5
:1024900027FB95F8B030012B06D12FB9D5F8B8300D
:1024A00085F8B070C5F8B4304FF000082F4FD5F85C
:1024B000AC30D7F8941022464846C7F89480984725
:1024C00004F0FD03012B8DF804800ED1484601AACB
:1024D00005F19001FFF78EFF9DF80430804623B987
:1024E00021464846D5F8A030984727F05BF840EAE7
:1024F0000800C0B280B1062C06D80123A34013F017
:10250000510F01D029F06CFB97F8783023B927F0F0
:102510004FF8012387F87830032C154D11D0042C87
:1025200013D0B4B92B6801332B602C8B29F000FE3B
:102530003368C01A844210D9288B288305B0BDE8BF
:10254000F083AB680133AB60EFE76B6801336B601E
:10255000EBE72B6901332B61E7E729F0E9FD3368ED
:10256000C01A80B2E9E700BFE80500216406002137
:102570002C0600212DE9F743054629F0D9FD374FF8
:102580004FF00009386026F0FDFF0446866A2946B0
:10259000D6F8A830984720460DF1070206F19001C1
:1025A0008DF80790FFF726FF804655BB26F0FAFF0F
:1025B00040EA0800C0B258B129F012FB284B93F84A
:1025C00078302BB926F0F4FF0122254B83F87820D0
:1025D0009DF8073023B929462046D6F8A030984701
:1025E000204C8DBBE3680133E360658B29F0A0FDCF
:1025F0003B68C01A85422BD9608B608303B0BDE86D
:10260000F083012D12D10028E2D0DFF85480D8F8F1
:10261000941031B102222046D6F8AC30C8F894901C
:10262000984729F0DDFA98F87830CAE7DFF830806B
:10263000D8F894100029F6D002222046D6F8AC3003
:10264000C8F894909847EEE7236901332361CCE7FB
:1026500029F06EFD3B68C01A80B2CEE7E805002184
:10266000640600212C06002108B50B20054A064906
:1026700000F024FBBDE808401C22002103482DF097
:10268000EEBD00BF61230001952300012C0600214F
:102690001FB501238DF80430002301A8CDE90233D2
:1026A00029F01EFA05B05DF804FB00002DE9F041A9
:1026B00004460D4626F066FF836A1B78042B0BD177
:1026C000124B93F878303BB9FFF7E2FF29462046DA
:1026D000BDE8F04129F00CBA0D4E0E4FB6F8168049
:1026E00029F026FD3B68C01A804509D9F38AF38298
:1026F000FFF7CEFF29462046BDE8F04129F022BA77
:1027000029F016FD3B68C31A9BB2F0E7640600216E
:1027100048060021E805002170B50C4E04460D4620
:10272000C6F89400A6F8901026F02CFF836A1B7858
:10273000052B0AD196F878303BB9FFF7A9FF294657
:102740002046BDE8704029F01BBA70BD6406002128
:1027500030B50446034D0FCD0FC495E8070084E85B
:10276000070030BD4806002170B50D46044629F02B
:1027700039FA094BD3F8941039B100222046C3F836
:1027800094200222D5F89C3098472046D5F8943002
:10279000BDE87040184700BF6406002170B50546CB
:1027A00008460F4C0E4629F027F90E4B04F1800025
:1027B000C4F880300C4BC4F88430AB68C4F888305F
:1027C000AB600423C4F88C3029F082F9002328463A
:1027D00084F87830D6F89030BDE87040184700BFD4
:1027E00064060021A1280001ED27000170B50C4608
:1027F000054629F09DFC274E306026F0C3FE9DF86B
:102800001030826A82F8A130234B82F8A04093F8FE
:10281000781011B9012183F878100024D3F89410AE
:10282000C3F89440D2F89C302A46984726F0BAFE66
:1028300050B1062D06D80123AB4013F0510F01D043
:1028400029F0CEF926F0B4FE032D144C0FD0042D40
:1028500011D0A5B9236801332360258B29F068FCCA
:102860003368C01A85420ED9208B208370BDA368BF
:102870000133A360F1E7636801336360EDE7236927
:1028800001332361E9E729F053FC3368C01A80B2B1
:10289000EBE700BFE805002164060021480600219F
:1028A0002DE9F04385B0054629F042FC2C4EDFF8B7
:1028B000B480306026F066FED0F828902946D9F81A
:1028C000983007469847D8F89410274C00293CD0F8
:1028D00065BBA58A29F02CFC3368C01A85421FD934
:1028E000A08A01238DF804300023A08201A8CDE93D
:1028F000023329F0F5F8B8F89010D8F8940029F0D0
:1029000065F9E3680133E360658B29F011FC3368F6
:10291000C01A854213D9608B608305B0BDE8F0838F
:1029200029F006FC3368C01A80B2DAE700230222DD
:10293000C8F894303846D9F89C30984708E029F018
:10294000F7FB3368C01A80B2E6E70DB929F048F901
:1029500026F02EFE002DD4D0236901332361D3E766
:10296000E8050021640600214806002108B504207E
:10297000054A064900F0A2F9BDE808401C220021E2
:1029800003482DF06CBC00BF692700019D270001A2
:102990004806002170B50D46044629F023F9094B7D
:1029A000D3F8941039B100222046C3F894200222B3
:1029B000D5F8A03098472046D5F89830BDE870404B
:1029C000184700BF640600212DE9F0410446876ADC
:1029D00008460F4D0E4629F00FF80E4B05F180000A
:1029E000C5F880300C4BC5F88430A368C5F8883032
:1029F000A360D7F89030C5F88C3029F069F800232F
:102A0000204685F87830D6F89430BDE8F041184774
:102A100064060021D52A00011D2A0001F8B50C46E4
:102A20001F46054629F084FB274E306026F0AAFD9C
:102A3000826A9DF8183082F8A840244C82F8A930A8
:102A400094F8783023B90123C2F8A47084F8783060
:102A50000023D4F89410C4F89430D2F8A0302A4659
:102A6000984726F09FFD50B1062D06D80123AB40B4
:102A700013F0510F01D029F0B3F826F099FD032D82
:102A8000134C0FD0042D11D0A5B923680133236056
:102A9000258B29F04DFB3368C01A85420ED9208B57
:102AA0002083F8BDA3680133A360F1E763680133B5
:102AB0006360EDE7236901332361E9E729F038FB1F
:102AC0003368C01A80B2EBE7E805002164060021F4
:102AD000480600212DE9F04385B0804629F028FB07
:102AE0002D4D2E4E286026F04DFDD0F82890414601
:102AF000D9F89C3007462A4C9847B8F1000F29D1E5
:102B0000D6F894300BB3A78A29F012FB2B68C01AB1
:102B1000874214D9A08A01238DF804300023A082B3
:102B200001A8CDE9023328F0DBFFB6F89010D6F803
:102B3000940029F04BF8E3680133E3601AE029F0D0
:102B4000F7FA2B68C01A80B2E5E729F049F826F0B9
:102B50002FFDF0E7D6F8941039B100230222C6F811
:102B600094303846D9F8A030984726F021FD2369E3
:102B700001332361668B29F0DBFA2B68C01A864289
:102B800004D9608B608305B0BDE8F08329F0D0FAEA
:102B90002B68C01A80B2F5E7E80500216406002121
:102BA0004806002108B50520054A064900F086F8C8
:102BB000BDE808401C22002103482DF050BB00BF97
:102BC00095290001C929000148060021816A034BAB
:102BD0000A7853F8323003B1184770476406002171
:102BE000816A044B0A7803EBC2035B6803B11847A0
:102BF000704700BF6406002128F0FEBF28F0FABE2F
:102C000008B528F0F7FEBDE80840002028F0EEBF28
:102C100008B528F0E1FE002028F0E6FFBDE80840F6
:102C2000012028F0E3BF08B528F0D6FEBDE8084033
:102C3000002028F0D9BF08B528F0CEFEBDE8084036
:102C4000012028F0D1BF000073B5134C134D144E72
:102C500028F0C0FE224629460120124B009626F09D
:102C6000CDFC2246294602200F4B009626F0C6FCDA
:102C70000E4B2246009300210D4B032026F0BEFC94
:102C800001200C4926F0C8FC982200210A4802B015
:102C9000BDE870402DF0E3BAE12B0001CD2B00011F
:102CA000FD2B0001372C0001272C0001012C000115
:102CB000112C0001F92B000164060021034B43F89D
:102CC000301003EBC0035A60704700BF6406002158
:102CD000F0B504468C46D3E9000116461D46177828
:102CE00085B0002C36D0CFB14FEA112E0EF0C00EB9
:102CF000BEF1400F12D1BCF1000F04D000F00AFD6C
:102D0000204605B0F0BD00F07BFC044608B101246C
:102D1000F6E71F4AD38B0133D383F1E702460B4614
:102D2000384600F07BFD0238C0B20128EFD80DF123
:102D30000F0300933078D5E9002300F013FC18B19D
:102D40009DF80F30002BDBD1114A0224138B013385
:102D50001383D5E727B10B0A03F0C003402BD6D06D
:102D600002460B46384600F059FD02380128CED8FD
:102D70000DF10F0300933078D5E9002300F0F2FB4A
:102D80000028E1D09DF80F30002BC0D1DCE700BF58
:102D9000FC0600212DE9F041884617461E460446F0
:102DA00058B152EA06030E4D0AD100F065FF012822
:102DB00006D10446EB880133EB802046BDE8F08164
:102DC0003A463346404600F0D5FE20B9AB8802248F
:102DD0000133AB80F1E7EB880133EB80EDE700BF17
:102DE000FC06002137B5DDE9065410B9002003B018
:102DF00030BDCAB1230A03F0C003402B14D129B15E
:102E0000284621460AAB08AA00F0D8FCDDE90A23CF
:102E10002846CDE9002321469DF8202000F02EFC15
:102E2000003818BF0120E2E79DF82000DDE90A2301
:102E300000F005FD0238C0B20128D7D8024A0220AE
:102E4000538B01335383D2E7FC0600212DE9F04F69
:102E500090F800800D8808F00F0845FA08F515F085
:102E6000010581460F4692461C466E4E87B006D13C
:102E7000338801333380284607B0BDE8F08F4FF424
:102E8000C07B72884BFA08FB01321BF0010B4378C0
:102E9000728001D00125EEE703F03F03637484F8EC
:102EA000108010F8025B27F045F8C5F38015E57433
:102EB000A574C4E90201C4E900017868514604F12F
:102EC000080304F11302C0F38010FFF701FF01288B
:102ED000054602D0022839D05D46D4E90223D7F84E
:102EE00004C094F813E01CF0040B0ED0D7E90410D2
:102EF000834208BF8A4203D1CCF3C00CE64527D0F9
:102F00004FF0020B3089013030817888714640FAE9
:102F100008F000F00100FFF73DFF584523D2D7F835
:102F200004C01CF0040F1CD0D7E90413A068E268A9
:102F30009A4208BF884204D1E37CCCF3C00C6345BD
:102F40000CD0338901333381012D1AD1002592E74A
:102F500070894FF0010B01307081D6E7738901331E
:102F6000738101250DE07888E17C40FA08F000F0DB
:102F70000100D4E90223FFF70DFF0128F1D902284F
:102F8000E2D04FF0010BB8F1050F257584F815B0AC
:102F900080D80BFA08F818F02A0F3FF47BAF4846A8
:102FA00010F8085B26F0C6FFD4E902238146CDE97C
:102FB00004237868E37CED09CDE9009188462A4630
:102FC00051460293C0F30010FFF70CFF01283FF4B5
:102FD00061AF0228BAD07B68DA077FF55BAFD7E92B
:102FE0000212424508BF494503D1C3F34002AA4239
:102FF00013D0B2890132B281002DA7D04FEA182830
:1030000008F0C008B8F14008A0D19B069ED5338CCB
:103010000133338484F815802DE7F3890133F3817C
:1030200038E700BFFC0600212DE9F04F07461C469B
:1030300008883B7C0E46184110F001009046624D16
:1030400087B005D12B8801332B8007B0BDE8F08F06
:103050006B8801336B80D7E90023C4E90223C4E9FC
:103060000023BB7C04F11302E374A374486804F1E9
:1030700008034146C0F38010FFF72AFE012881466D
:1030800003D002283DD04FF00009D4E90223D6F83E
:1030900004C094F813E01CF0040A0ED0D6E9041022
:1030A000834208BF8A4203D1CCF3C00086452AD0B0
:1030B0004FF0020A288901302881708897F810C0E3
:1030C000714640FA0CF000F00100FFF763FE504536
:1030D00025D2D6F804C01CF0040F1DD0D6E9041385
:1030E000A068E2689A4208BF884204D1E37CCCF32E
:1030F000C00C63450DD02B8901332B81B9F1010F31
:103100001BD10020A1E768894FF0010A01306881D6
:10311000D3E76B8901336B814FF001090DE03B7CF4
:103120007088E17C184100F00100D4E90223FFF728
:1031300031FE0128F0D90228E0D04FF0010A84F8CE
:10314000149084F815A07B7C990701D401207CE7BA
:1031500097F81390D4E90223D7E902B77068CDE954
:103160000423E37C4A464146CDE900B70293C0F30D
:103170000010FFF737FE01283FF467AF0228C0D0E8
:103180007368DA07E2D5D6E90212BA4208BF594598
:1031900003D1C3F340024A4511D0AA890132AA8162
:1031A000B9F1000FADD03F0A07F0C007403FA8D1EA
:1031B0009B06A6D52B8C01332B846775C6E7EB895C
:1031C0000133EB81C2E700BFFC060021054B03F190
:1031D000240253F8041B934240F8041BF9D11B88C6
:1031E00003807047FC060021002330B50A4C0B4DCC
:1031F00023700B4C23708B070EBF0B4621F003038B
:1032000004332B6003EB00135B1A934296BF2070CC
:10321000002098B230BD00BF220700212407002102
:1032200023070021F0B500240D499DF814C00D7846
:103230000C490968A54201D80020F0BD0E7A8642EB
:1032400008D1D1E900769E4208BF974202D14E7A5A
:10325000664502D001341031ECE70120EDE700BFF4
:103260002207002124070021014B1878704700BF76
:10327000230700210022014B1A707047220700210A
:1032800030B50B490B4D09782C78A1420DD90A496C
:10329000096801EB041108720120C1E900239DF8BF
:1032A0000C3001344B722C7030BD0020FCE700BFA5
:1032B0002307002122070021240700212DE9F041E6
:1032C0001B4C8446276800253C46DFF868E09DF8E3
:1032D00018809EF80010EEB2B14201D8002021E023
:1032E000267A664520D1D4E900069E4208BF904266
:1032F0001AD1667A464517D1012901F1FF300ED95E
:1033000085420CD001F18051013907EB01110B7A94
:103310002372D1E90023C4E900234B7A63728EF84B
:1033200000000120BDE8F08101351034D3E700BF73
:103330002407002122070021F0B50C4943EA00438D
:103340000D780B490C680021C8B2854201D80020D5
:103350000AE02046D0E908769E4208BF974201F174
:10336000010104F14804EFD1F0BD00BF2C0700219A
:103370003007002130B585B00C46054610220021EB
:1033800068462CF06CFF6A46230A28468DF80040F8
:103390001146240C8DF801308DF8024028F02CFDE8
:1033A0009DF802309DF801001B0443EA00239DF8BC
:1033B0000000184305B030BD13B5042104460DEBE1
:1033C000010028F0D5FD01992046C1F3150141F413
:1033D00080010191FFF7CEFF019940EA0160090ADF
:1033E00002B010BD002330B50A4C0B4D23700B4CBE
:1033F00023708B070EBF0B4621F0030304332B60B1
:10340000482505FB00335B1A934296BF20700020CD
:1034100098B230BD2C070021300700212D07002174
:10342000014B1860704700BF28070021014B187836
:10343000704700BF2D0700210022014B1A70704712
:103440002C070021F8B507461D46FFF775FF164605
:10345000044680B92E4A2F4913780978994201D839
:103460000020F8BD48202C490C6800FB03440133C0
:103470001370002CF4D0224645EA0745069BC4E9A8
:10348000086503F1100153F8040B8B4242F8040B5A
:10349000F9D1012304F10F0284F84030631E13F8C0
:1034A000011F71B3002384F8403004F1100002467C
:1034B000079B03F1100153F8045B8B4242F8045B55
:1034C000F9D1012384F84130034604F1200213F8B6
:1034D000011BC9B1002384F8413000230022C4E954
:1034E0000A23C4E90C23C4E90E230023A4F84230C4
:1034F00094F841301BB9FFF75FFFC4E90C010120CC
:10350000AFE79A42CBD1D0E79A42E0D1E5E700BFDE
:103510002C0700212D0700213007002138B5FFF7C7
:103520000BFF78B1084D2C78012C08D9482202FBFA
:1035300004F30649483B096819442CF069FE012050
:10354000013C2C7038BD00BF2C0700213007002142
:1035500008B5FFF7F1FE20B19DF8083080F8433040
:10356000012008BD08B5FFF7E7FE20B190F8432021
:103570000120029B1A7008BD10B5029CFFF7DCFE0B
:1035800040B1D0E90A2352EA030116BF012000200E
:10359000C4E9002310BD10B5029CFFF7CDFE40B179
:1035A000D0E90C2352EA030116BF01200020C4E930
:1035B000002310BD08B5FFF7BFFE28B1029BD3E979
:1035C0000023C0E90C23012008BD10B5FFF7B4FEAD
:1035D000044698B190F8403083B990F8423033B93E
:1035E000FFF7EAFE0123C4E90A0184F84230029B96
:1035F000D4E90A01C3E90001012010BD0020FCE765
:10360000F7B50026194C94F800C0194C25683446CB
:10361000F7B2BC4510D80CB3164C2468F4B1164E62
:10362000758C01357584D3E90067CDE9006713789F
:103630000122A047002411E095F8407097B9D5E920
:103640000A748C4208BF87420BD10124E98C01F037
:1036500001011170296AAA8CC3E90012204603B047
:10366000F0BD012401364835D2E700BF2C07002108
:103670003007002128070021FC0600212DE9F3472F
:10368000DDE90A679146804632463B4648460D468C
:10369000FFF752FEE8B190F84140D4B9D0E90E23CB
:1036A000AB4208BF424516D00C4BD3F800A0BAF18C
:1036B000000F0AD00A4A4046938C2946013393846E
:1036C0004B462246CDE90067D047204602B0BDE810
:1036D000F0870024F9E70124F7E700BF280700215D
:1036E000FC06002138B505461046DDE904230C46EA
:1036F000FFF722FE50B190F8413043B9D0E90E23D4
:10370000A34208BFAA420CBF0120002038BD002000
:10371000FCE700002DE9F74F0E4605461F464FF027
:1037200000084FF0480B010E41EA0621DFF880A0A7
:10373000009221F07F411F4B5FFA88F41B78A3426F
:1037400005D81D4A0020138A0133138229E0DAF8D4
:1037500000300BFB043494F84090B9F1000F23D1F2
:10376000D4E90A23B34208BFAA4210D020460191EF
:10377000FFF700FE25F07F438342019914D10E4AE2
:10378000C4E90A56538A84F84290013353820120D7
:10379000E38C009A03F001031370226AA38CC7E93B
:1037A000002303B0BDE8F08F08F10108C3E700BFB4
:1037B000300700212C070021FC06002170B50E46C1
:1037C0001146D3E9002305460878FFF7B5FD044606
:1037D000E0B190F84130CBB9D0E90E23B34208BF35
:1037E000AA4211D0290E41EA062121F07F41103072
:1037F000FFF7C0FD25F07F43834207D1064AC4E9A5
:103800000E56D38A0133D382012004E00020024AFD
:10381000938A0133938270BDFC06002108B5FFF73F
:103820008BFD48B1D0E90A23134306D190F840300C
:10383000002B14BF0120022008BD0320FCE708B5BF
:10384000FFF77AFD48B1D0E90C23134306D190F875
:103850004130002B14BF0120022008BD0320FCE7EB
:103860002DE9F04100254FF04808124E124F3378F1
:10387000ECB2A34201D8BDE8F0813B6808FB0434F8
:1038800094F841302BB904F11000FFF795FDC4E91D
:103890000C0194F840303BB994F8423023B12046F3
:1038A000FFF78AFDC4E90A01012384F844301D446E
:1038B000DDE700BF2C0700213007002108B5FFF726
:1038C0003BFD034620B1002290F8440083F84420D9
:1038D00008BD08B5FFF730FD003818BF012008BD4E
:1038E0001FB5002301A8CDE90133039328F0F8F8B0
:1038F00005B05DF804FB000030B5144B144D85B0E5
:10390000C5F88030134B0C46C5F884308368C5F881
:1039100088308360D1F890300846C5F88C3028F0A4
:103920006BF805F1800028F0D3F803238DF80430FC
:10393000002301A8CDE9023328F0D2F8B4F89C1096
:10394000D4F8980028F01CF905B030BDF939000111
:103950006406002159390001F0B585B00F460446D0
:1039600025F010FE856A064685F89E70F4B9204B56
:103970001B682BB195F82C2012B105F12C0098474B
:1039800021463046D5F894309847B0B103238DF8DE
:103990000430002301A8CDE9023328F0A1F8B5F8DE
:1039A0009C10D5F8980028F011F90AE014F0FB0FEC
:1039B000D5F89430E4D02146984728F011F925F045
:1039C000F7FD032C0B4B07D0042C09D064B91A68FF
:1039D00001321A6005B0F0BD9A6801329A60F9E7C9
:1039E0005A6801325A60F5E71A6901321A61F1E743
:1039F000780D002134070021F7B5054625F0C2FDFA
:103A00001C4E0746846A25BB28F0EAF8294638464A
:103A1000D4F89030984700B3174DB4F89A20D5F8F1
:103A2000883020461344C5F8883027F0E5FF05F1BB
:103A3000800028F04DF8FFF753FFB4F898300121CB
:103A4000ADF80030D4F894306846019328F050F86F
:103A500006E02946D4F89030984725F0A9FD25B90D
:103A6000F3680133F36003B0F0BD336901333361B0
:103A7000F9E700BF340700216406002137B50C4682
:103A8000104D114BC5F88030104BC5F88430836859
:103A9000C5F888308360084627F0AEFF05F1800046
:103AA00028F016F8FFF71CFFB4F898300121ADF8A4
:103AB0000030D4F894306846019328F019F803B028
:103AC00030BD00BF64060021F939000159390001F9
:103AD00008B528F087F8BDE8084025F069BD00006A
:103AE00010B5094C002022460849FFF7E7F82246A6
:103AF00001200749FFF7E2F8BDE810401C22002131
:103B000004482CF0ACBB00BFD13A00017D3A000163
:103B1000F93800013407002130B50446034D0FCDBC
:103B20000FC495E8070084E8070030BD3407002182
:103B3000002330B50B4C0C4D23700C4C2B702370B4
:103B40008B070CBF0B4621F00303094D18BF04334C
:103B50002B6003EBC0035B1A934296BF20700020DA
:103B600098B230BD510700215007002152070021B3
:103B70005407002130B50B4943EA00430A4809685D
:103B8000047801EBC404A14201D1002030BDD1E989
:103B90000050984208BF954201F10801F3D101207D
:103BA000F4E700BF5407002151070021014B1878AA
:103BB000704700BF520700210023024A1370024AD7
:103BC00013707047510700215007002170B5064659
:103BD00015461C46FFF7CEFF80B9094B094A1978F4
:103BE00012788A420BD9084A44EA0644126802EB6A
:103BF000C10042F83150013144601970012070BD9C
:103C000051070021520700215407002143EA0043D5
:103C10001148F0B50468DFF844C025469CF8001050
:103C200004EBC10E754501D1002014E02846D0E90F
:103C300000769E4208BF974205F10805F2D101299E
:103C400005D904EBC10454E90223C0E90023012093
:103C500001398CF80010F0BD5407002151070021F4
:103C60000122014B1A707047500700210022014BBE
:103C70001A70704750070021014B1878704700BF39
:103C80005007002137B5044624F0AAF90022144B4E
:103C90009C42144B0CBFDA701A7194F8423003F056
:103CA000FD03012B01D124F0ABF920460CF084F880
:103CB00004F1280528460DF1070126F0B7FA40B9AE
:103CC000303420460DF1070126F0B0FA20B903B0D8
:103CD00030BD26F093FAEDE726F090FAF1E700BF49
:103CE000780E0021B0520021154A38B5154C164BFC
:103CF000106851681D6804F13C0303C304F14800D7
:103D000029790CF081F9012025F0C6FB24F060F937
:103D100001230E4DEB7094F8423003F0FD03012BAC
:103D200001D124F065F90CF069F8002001236871D5
:103D300084F8D031A4F8CE31BDE8384024F0F1B891
:103D400088530021780E0021700E0021B05200210E
:103D5000054BDB7833B10123044880F899309C305F
:103D600025F090BF704700BFB0520021780E0021AF
:103D7000002024F0D6B80C2024F0D3B808B50120D8
:103D800025F0A0FBBDE808400148FFF77BBF00BF5E
:103D9000780E002108B5012025F094FB0348FFF7B9
:103DA00071FFBDE80840002024F0BBB8780E002168
:103DB000FFF7E4BF034B044A19684B6813608B6834
:103DC00053607047700E00218853002108B5084BDE
:103DD00008481B68197990F888308B4202D0483027
:103DE0000CF012F9BDE80840002024F09AB800BF9A
:103DF000700E0021780E002110B50446012025F038
:103E000061FBA37B03F0FD03012B01D124F0F8F843
:103E1000D4F8C80220B126F0F1F90023C4F8C83262
:103E2000D4F8D00220B126F0E9F90023C4F8D0324A
:103E3000034AD378013BD370BDE8104024F0D0B8DA
:103E4000B052002138B505460F4C012025F03AFB51
:103E50002C1B0E48EB68241144430BB1A0B29847C9
:103E60000434E0B225F04CF995F8D8320BB124F0C7
:103E7000D7F824F0B5F8D5F8C40208B126F0BEF999
:103E800000232B7038BD00BFE0190021D32FFDD2D5
:103E900038B50C4605461222002120462CF0DFF9E9
:103EA000204695F8403300F8023BD5E9D22326F0AE
:103EB00047F895F841330E4A637095F888332372BA
:103EC000D5F86431A3FB0232DB0F43EA420363817E
:103ED00095F86831237395F86032637395F8613211
:103EE000A37395F86232E37395F86332237438BD97
:103EF000E3361A0038B50446012025F0CDFAA37B3D
:103F000003F0FD03012B01D124F072F800232046B9
:103F10006370A370A4F8083284F83C300CF0B2FB54
:103F2000054620B920460CF0C5FC054640B12846A0
:103F300024F04CF92046BDE8384003210CF09ABE2D
:103F4000074AD3780133D37024F042F8012328467E
:103F500084F86830A4F86630BDE8384024F036B9FB
:103F6000B0520021002024F031B9000030B4027CAE
:103F70000121022A18BF00220C4C817065789542FD
:103F80000AD190F8082222B900F5037030BC25F060
:103F900079BE00F54E70F9E701FA02F2217821EAC4
:103FA00002022270032130BC0CF064BE50100021CC
:103FB000002024F00BB9000010B5094C6378012BE8
:103FC00004D9BDE810400C2024F000B904F16000D1
:103FD00026F009FB04F17000BDE8104026F003BB99
:103FE00058100021034B5B7813B10C2024F0EEB87D
:103FF000704700BF58100021024B587800B10C20C8
:1040000024F0E4B85810002108B5FFF7F5FE044B82
:104010005B7823B1BDE80840002024F0D7B808BD84
:104020005810002138B51E4B01201C6825F034FAC9
:1040300023790BB123F0ECFF23791A4D2B72D4E9CD
:104040000223C5E90423E379AB72A3796B72637D24
:104050002B760DF06FF9D8B12862237980F8D83229
:10406000A37980F8D932E37980F8DA32D4E90223EF
:10407000C0E9B8230A22238AA0F8D032638A5343C6
:10408000C0F8D4320B23437263798371237DC371EB
:10409000286A0CF0BFFEBDE8384023F099BF00BF8E
:1040A0004C3C0021083C0021034B5A78012A04BFF4
:1040B00000225A70704700BF083C0021084B186A64
:1040C00090F8C3220AB9012202715B78012B03D157
:1040D000C370303025F0D6BD05210CF0E5BD00BF22
:1040E000083C002130B5104C87B06378012B07D114
:1040F0000025206AC3700571303025F0C3FD65705E
:10410000206A01A9FFF7C4FE236A0849084A591A20
:10411000091151433E2093F88D3401AA89B224F04D
:1041200090F807B030BD00BF083C0021E019002125
:10413000D32FFDD230B52F4C87B06378206A012B86
:1041400004BF00236370FFF77DFE256A2B7983B1DE
:104150001222002101A82CF082F82749274B691A66
:1041600009115943442095F88D3401AA89B224F0ED
:1041700068F8256A95F8C332BBB1217A11F00101C4
:1041800015D1122201A82CF06AF81B491B4B691AA1
:10419000091159431A2095F88D3401AA89B224F0E7
:1041A00050F80022236A83F8C32207B030BD1820DC
:1041B00026F01CF801460028F3D040F20B13438090
:1041C000D4E90423C0E90223A37AC371637A83711B
:1041D000237A0371236A9A794271B3F8D022D3F813
:1041E000D43202824382237E4375054B187B26F02E
:1041F0000EF8D6E7083C0021E0190021D32FFDD2AC
:10420000F85200212DE9F0434B4B85B01D680DF0AD
:1042100091F80446002800F08C80012025F03CF93C
:10422000002184F8D81295F82030444F84F8D93210
:1042300095F82130424E84F8DA32D5E90A23C4E9F0
:10424000B82395F82330384684F888334FF47A73CE
:10425000C4F8D4320C233461A4F8D0126372A91DBF
:1042600017F078FC40F2E242BB885343C4F8643153
:1042700095F8203084F8403395F8213084F84133A4
:10428000DB07D5E90A01C4E9D2011CD50B0A03F00A
:10429000C003403B17D14FF000084FF000098DF8E4
:1042A00007300DF1070202ABCDE90289FFF732FAC0
:1042B00048B19DF8073043F0020384F84133DDE94B
:1042C0000223C4E9D22395F83230306984F88D3462
:1042D0006B6BC4F85C3295F8383084F8603295F82E
:1042E000393084F8613295F83A3084F8623295F8C2
:1042F0003B3084F863320CF08DFD23F069FEAB880F
:10430000288BB3806B8B7080F380AB8B33812B8ECB
:10431000738195F822303373EB8BF3816B6B736190
:10432000AB6BB3610CF06CFE05B0BDE8F04305F07B
:10433000A9BD05B0BDE8F0834C3C0021503C0021F4
:10434000303C002170470000012310B5064C206965
:10435000C370303025F096FC21693E20BDE8104046
:1043600091F88D240DF036B8303C0021034B1869CC
:104370000123303000F82D3C25F084BC303C002176
:10438000044B1869C378012B04BF0023C370FFF7E7
:1043900059BD00BF303C002110B5437A04460B2BB9
:1043A00086B010D101A9FFF773FD0C490C4B611ABF
:1043B00009115943002094F88D3401AA89B223F0E1
:1043C00040FF06B010BD0C2BFBD1014690F88D24A8
:1043D000002006B0BDE810400CF0FCBFE019002141
:1043E000D32FFDD20123303000F82E3C25F04ABCFB
:1043F000FFF728BD012310B504468370303025F047
:1044000041FC04F54C7026F0EEF80548201A054CE6
:1044100000116043BDE8104080B223F043BF00BFED
:10442000E0190021D32FFDD2F8B50579C388012DFD
:104430001AD0022D21D0B5B94FF4B66253431349B7
:104440000688CC18B4F898214088921B82420ADC76
:10445000D4E9646703F53E73C4E9BE67C81823F066
:1044600017FE84F88851F8BD4FF4B662074802FB86
:104470000303002283F8F021F5E74FF4B662034806
:1044800002FB0303002283F85822ECE7E019002125
:1044900008B523F0A5FD0022054B5A70054B93F893
:1044A00021301BB1BDE8084023F0AABD08BD00BF04
:1044B000B0520021C053002108B5012024F0ECFFC8
:1044C00023F086FD0122074B5A70074B93F82130E9
:1044D0000BB123F08DFD0DF097F8BDE808400020EA
:1044E00023F010BDB0520021C053002108B50120B7
:1044F00024F0D2FF23F06CFD0122064B5A70064BCC
:1045000093F821300BB123F073FDBDE808400DF0A6
:104510007BB800BFB0520021C0530021054B5B782F
:1045200033B10123044880F829302C3025F0AABB90
:10453000704700BFB0520021983C0021002023F0BA
:10454000E1BC0C2023F0DEBC2DE9F0415B4B8AB0CE
:104550005B78002B00F0AF80594C94F82860002E57
:1045600000F08480D4F8EC80B8F1000F79D00122FB
:1045700004F5847304F1D0014046FEF767FC06465B
:10458000602025F033FE0546002800F0908000F101
:104590000807384608F1020117F0BDFC384617F04D
:1045A00011FD00B196B9284625F028FE042025F01B
:1045B0001DFE014630B14FF441734380414B187BDF
:1045C00025F025FE012024F07DFF4AE00023AB709A
:1045D000D4F85831AB6394F81B3185F83C3094F82B
:1045E0001A219A4207D1D4E94461D4E942029142A6
:1045F00008BF864203D043F0020385F83C30002018
:10460000D4E944230021C5E91223C5E9140194F833
:104610001B0194F81A11884207D1D4E94470D4E9F7
:104620004261884208BFB74203D0D4E94201C5E9DC
:10463000140195F83C0013F03FFE0028B3D1224B43
:104640002946D3E91C23C5E9162394F82A3085F8B6
:10465000410085F83D300123EB871A4B187B25F08C
:10466000D6FD0AB0BDE8F041FFF712BF164C0DF0C1
:1046700005F9257C012DA5D13146242201A82BF076
:10468000EEFD43F60543ADF806303C238DF80830C7
:10469000A37C0DF10E008DF80D30D4E906238DF8C2
:1046A0000C5025F04DFC01A823F024FC8AE7002ED5
:1046B0003FF47CAFD5E70AB0BDE8F081B0520021ED
:1046C000983C0021F8520021C053002108B5012078
:1046D00024F0F8FEFFF7DCFE0DF0D0F8BDE808404E
:1046E000002023F00FBC08B5012024F0EBFEFFF7FB
:1046F000CFFEBDE808400DF0C1B80000054B30B555
:104700001C68054D08340FCC0FC594E80F0085E8F0
:104710000F0030BD700E0021C853002110B50446B3
:10472000012024F0CFFE074B1868201A064C801198
:1047300060430430C0B224F029FCBDE8104023F0EF
:104740004FBC00BFCC3E002183BEA02F10B5044655
:10475000D0F8C80928B1043825F050FD0023C4F86A
:10476000C839D4F88C0828B1043825F047FD002357
:10477000C4F88C3894F83B300BB123F041FC024A6A
:104780009378013B937010BDB052002138B50446B8
:104790001F4D012024F080FE2A682046137A84F8F9
:1047A0004C33002384F84D3384F84E3384F8C437F7
:1047B00084F8C6375168C4F850330EF0B5FA014694
:1047C00040B1607823F07CFD2046BDE838400421EC
:1047D0000EF064B90F4A93780133937094F83B302C
:1047E0000BB123F005FC2B68596851B14FF47A7274
:1047F000636A0A39B3FBF2F304F54F70C91A25F066
:10480000ECFE60780021BDE8384023F059BD00BFC0
:10481000D03E0021B052002138B504461C4D012085
:1048200024F03AFE2A682046137A84F84C33002399
:1048300084F84D3384F84E3384F8C43784F8C6378F
:104840005168C4F850330EF06FFA014640B16078F9
:1048500023F036FD2046BDE8384004210EF01EB995
:104860002B685B6893B14FF47A71626A4B4302F52F
:104870009C520832B3FBF2F3013B534304F54F70F3
:10488000B3FBF1F1BDE8384025F0A7BE38BD00BF4D
:10489000D03E002170B5134D00F54F7604463046EA
:1048A00025F0A1FE2B685B687BB14FF47A71626AD8
:1048B0004B4302F59C520832B3FBF2F3013B5343E6
:1048C0003046B3FBF1F125F088FE00212B686078BB
:1048D0001B7A84F84D1384F84C33BDE8704023F004
:1048E000EFBC00BFD03E002110B5044600F54F706C
:1048F00025F079FE002384F84E33012384F8C6376F
:1049000010BD0021407823F0DBBC0C21407823F05F
:10491000D7BC0000F0B590F8C43704469DB0002B1A
:1049200034D100F54F7025F05EFE2046FFF70EFFF4
:10493000012024F0C7FD94F84C2394F84D3322B1A4
:10494000934224BF432284F84E23002294F84E134E
:10495000607823F0F6FA238C03F01D031D2B13D18E
:10496000002000213C230022CDE90401CDE90632DC
:10497000CDE90201D4E90C0194F83A30CDE9000107
:104980000121607801F000FC1DB0F0BDD0F88C680A
:10499000784F002E77D000F6A80300F507610122BA
:1049A0003046FEF753FA002800F0D080602025F052
:1049B0001DFC0546002800F0C9806378314603805D
:1049C0000023837010A817F07DFA311805F1080054
:1049D00017F0A1FAD4F88C38002B00F0828094F8FC
:1049E000BBC804F50B6185F83CC094F8BA38634540
:1049F00008D151E90203D4F8B0684A689A4208BF66
:104A0000864203D04CF0020C85F83CC0D1E900236B
:104A1000C5E9122300220023C5E9142394F8BB281A
:104A200094F8BA389A4208D151E90203D4F8B06830
:104A30004A689A4208BF864203D051E90223C5E979
:104A40001423012385F83E30D4F8C037387BAB639C
:104A5000494B2946D3E91C23C5E9162394F8C537E9
:104A600085F83D30012385F83F3094F84D3385F8C3
:104A7000403094F8BC3785F8413025F0C8FB20461B
:104A8000FFF764FE80E7D0F8C869002E8ED031466B
:104A900008A817F017FA311810A817F03CFA0023ED
:104AA0000F939DF8203004F507618DF8383003230B
:104AB0008DF83930DDE91023CDE90A239DF8223045
:104AC0000AA88DF83A30DDE91223CDE90C239DF8D0
:104AD000233001228DF83B3004F52063FEF7A4FA61
:104AE00061E794F813CA04F5206185F83CC094F896
:104AF000123A634508D1D1E90262D4F8000A4B6842
:104B00009A4208BF864203D04CF0020C85F83CC0A4
:104B1000D1E90223C5E9122300220023C5E91423A9
:104B200094F8132A94F8123A9A4208D1D1E9026211
:104B3000D4F8000A4B689A4208BF864203D0D1E9F4
:104B40000023C5E9142394F835397BE76378311FD6
:104B500026F8043C082306F8023C032306F8013C2F
:104B6000387B25F054FB01201DB0BDE8F04024F057
:104B7000A9BC00BFF8520021C053002110B5044663
:104B8000FFF7E4FD012024F09DFC60780021BDE8E2
:104B9000104023F095BB10B50446FFF7D7FD012068
:104BA00024F090FC2046BDE810400CF0EBBF3C2305
:104BB00080F84E33012380F8C63770470022134631
:104BC000F0B5D0E90076C3F12005A3F1200427FA5F
:104BD00003F106FA05F5294326FA04F42143C9072F
:104BE00044BF81180B7203F1010348BF0132252B2A
:104BF000E9D180F82D20F0BD70B5044600250120D4
:104C000024F04AFC84F8C6520AF0C6FF94F82F3309
:104C1000A4F8905165F30603254684F82F33364BEC
:104C2000C4F88C01D3E90E23E5E9B823284623F024
:104C30002FFA012384F80E33D4F88C3183EA13431E
:104C4000A4F8103394F8453AFBB194F82F13B4F854
:104C5000903101F07F01594028460DF0A3F894F8F7
:104C6000453A84F8C502204693B1244B1B687BB1BA
:104C70009847054678B1204603210EF075F929467C
:104C80006078BDE8704023F052BBB4F89011E3E7C0
:104C90000EF0BAF9EDE7012384F88931A378012BEE
:104CA00013D194F82D2A0AB984F89231D4F890647B
:104CB000B4F88C5423F0EBF83246294625F04CF931
:104CC0000123A4F89C0484F82E3A94F8CC325BB10A
:104CD000D4F89064B4F88C5423F0D9F832462946BD
:104CE00025F03AF9A4F8CE026078002123F01FFBEA
:104CF000BDE8704023F06CB9B05200215807002184
:104D00000021407823F013BB0C21407823F00FBB27
:104D1000F8B583780446012B11D190F88951012D03
:104D20000DD1D0F89074B0F88C6423F0B0F83A4606
:104D3000314625F011F984F82E5AA4F89C04012379
:104D400084F8C632002304F5CA7084F8893184F8E7
:104D50009231BDE8F84024F095BF10B590F8883145
:104D60000446012B04D1FFF7D3FF2046FFF7D6FC02
:104D70002046BDE81040FFF7B7BD10B590F8883168
:104D80000446012B04D1FFF7C3FF2046FFF7C6FC02
:104D90002046BDE810400CF0F5BE10B50446FFF704
:104DA000BDFC60780021BDE8104023F0C0BA0000CF
:104DB00090F85030012B12D0094B1B68D3E9022325
:104DC000C0E9C623C0E91623B0F890310633A0F835
:104DD0006030082380F85230012380F8503070474B
:104DE000C83E0021D0F8383A0BB1407818477047D8
:104DF000D0F83C3A0BB140781847704790F8203112
:104E0000012B0ED0D0F82033C0F82431B0F8243371
:104E1000A0F82831B0F82C33A0F82A31092380F803
:104E2000223170470023C0F82031C0F82431C0F887
:104E300028317047682200212BF011BA5030FFF75B
:104E4000F9BF2A2307B58DF803008DF804006846E2
:104E5000ADF800108DF802308DF8051023F04AF8F7
:104E600003B05DF804FB2C2307B5ADF800008DF806
:104E700004006846ADF802308DF8051023F03AF8CA
:104E800003B05DF804FB08B5012024F005FBBDE884
:104E9000084023F09DB800002DE9F04FDFF838817D
:104EA0000446D8F800608FB006F1080529460FF0D7
:104EB00057F92946002520460FF0BAF9AA46B37DD6
:104EC000AB423ED9002794F8562004F1570305F170
:104ED000010906E0D4F894302BBBC4F894B022E06A
:104EE0000137BA421FD913F8011B4945F8D12046B2
:104EF0000EF0C6FA96F84030F18E0293D6E90E23F2
:104F0000CDE900230A46F16A83460EF05FFBD4F830
:104F10009030002BDED1E368C4F890B06B4384F886
:104F20009C50C4F8983094F85630BB4207D194F89E
:104F300034305A1C0E3384F8342044F823A04D46F4
:104F4000BDE7D8F80010204608310FF091F8216F26
:104F500004F1600025F041FB2B23A57820220021DD
:104F600006A8ADF81630ADF814502BF078F9E36AC6
:104F70001A4A0793A38A04F138015BBAADF82030CE
:104F8000E38A8DF81950ADF82230A3885034ADF87B
:104F9000243054F8403CA3FB0232DB0F43EA4203C7
:104FA0000022ADF82630134651F8040B40B140887A
:104FB0000EAD5A1C05EB430323F80E0CD3B20122AD
:104FC0008C42F1D10AB18DF8283005A822F092FF69
:104FD0000FB0BDE8F08F00BFEC3E0021E3361A00B1
:104FE00090F8BA3080F85430704710B543780446D2
:104FF000012B8AB018D181780020FFF722FF2022F0
:10500000002102A82BF02BF92B228DF80620442238
:10501000A37801A8ADF804308DF807208DF808209A
:105020008DF8093022F066FF0AB010BD082380F821
:10503000543070473D2380F85430704710B5044613
:10504000012024F03FFA236D13B1002283F8F221EE
:105050006378032B06D194F85430A0784BB11946ED
:10506000FFF701FF20460EF0A5FDBDE8104022F03D
:10507000B7BF01461846FFF7E4FEF3E7F8B505466B
:105080000FF07EFE044648B1284604210FF046FE8C
:1050900021462846BDE8F8400FF0DABD012024F093
:1050A000FBF92C6DCCB1012384F88931A378012B55
:1050B00013D194F82D2A0AB984F89231D4F8907457
:1050C000B4F88C6422F0E3FE3A46314624F044FF03
:1050D0000123A4F89C0484F82E3A284602210FF0FC
:1050E00033FEBDE8F84022F073BF0000F0B504467F
:1050F00085B007200EF09AFC064630B3144B03A986
:105100001868258C0390304618F08AFA114F06353E
:10511000ADB2D7E90E230095304418F094FA062278
:10512000314620460EF089FC94F8A030A4F8A8502F
:1051300043F0010384F8A030D7E90E23C4E92C23FF
:10514000236D13B1002283F8B82005B0F0BD00BF75
:1051500070130301B052002173B5044603200EF012
:1051600065FC0646E0B1124B01A95868258C0190F8
:10517000304618F055FA0635ADB22A4694F8BA1002
:10518000304418F072FA0622314620460EF055FCE3
:1051900094F8A030A4F8B85043F0020384F8A0308B
:1051A0000321204602B0BDE870400FF0CDBD00BF26
:1051B0007013030110B50446C43024F063FD20468B
:1051C000BDE8104003210FF0BFBD000010B504463C
:1051D0000D4B1B68C31A0D48DB1043430C33D8B288
:1051E00023F0D4FE012024F06DF920460EF0E2FCFD
:1051F00022F0F6FE6378022B04D12046BDE8104071
:105200000FF078BD10BD00BFE43E0021E9473FFA32
:105210007FB50622ADF80620002203890D4DADF8BA
:105220000430ADF80A30C37F01A88DF80C308DF83A
:10523000082022F05FFE2B784BB1074EF0880FF06C
:10524000A1FE044618B9304622F054FE2C7004B07A
:1052500070BD00BF660700215C0700212DE9F04307
:105260008BB0044615460E462422002101A82AF0E0
:10527000F6FF26238DF8023040F2E243B4F86822AC
:1052800094F86B1294F86A7202FB01FE02FB07F0BD
:1052900003FB0EFE94F85A9203FB00F8D4F8643234
:1052A000B9F1010F0CBF5B19EB1A73440593236925
:1052B000D4F860020393B4F85632B4F808C0ADF8DD
:1052C000183094F86C3208BF40198DF81A3094F8F1
:1052D000743218BF281A8DF81B3094F8753208BF45
:1052E00040448DF81C30A37A18BF4044ADF800C08C
:1052F0008DF803600CBF04900490ADF806C08DF8E3
:10530000046002958DF81D708DF81E10ADF82420F4
:105310008BB9B4F83021012B0CBFB4F83031B4F89C
:105320002C316846ADF82020ADF8223022F0E2FDA5
:105330000BB0BDE8F083B4F82C21ECE738B5054696
:1053400004200C4624F052FF014650B12B89C47052
:1053500003800F238370034B187BBDE8384024F093
:1053600056BF38BDF852002138B5054604200C461A
:1053700024F03CFF014650B1EB88C4700380012348
:105380008370034B187BBDE8384024F040BF38BD24
:10539000F8520021014B9B7CC3777047403F0021AE
:1053A000024B1B681B79C377704700BFF43E002196
:1053B0003E23C37770470823C37770472223C37700
:1053C00070470D23C3777047014B5B7CC3777047F1
:1053D000403F00213D23C3777047000010B50446CD
:1053E000C07A0FF041FE4FF47A711B4BE2881B68C4
:1053F00001FB0233C27C0132C274A27A22BB94F850
:105400005612032993F84E2021D1013A18BF0122E8
:105410008A1A1A4492F9C0217E2A1AD193F8750388
:10542000B8B10E4A58181268032992F9242080F85E
:10543000BF2108BF83F8C321D3F8A4325B0702D58C
:10544000012384F84D3210BD94F85712D9E7012298
:10545000DEE784F83A21F6E7D03F00215C520021D4
:10546000002210B590F847300446C17F80F84720ED
:1054700033B1222904D1BDE810401121FFF7EEBE5F
:1054800000222046FFF7EAFEE37F442B04D11623D7
:105490002046E377FFF7BCFE2046BDE8104010F041
:1054A000F3B8000038B50446C08812F085FB054605
:1054B00098B9082024F09AFE014668B1E388038079
:1054C00041F2017343802389C380E37F0371044B5E
:1054D000187B24F09CFEA57638BD0123A376FBE75C
:1054E000F8520021F8B504460121C688008914F05D
:1054F0003BFF0221208914F037FFE07A0FF0B4FD62
:10550000054604F50F7025F06EF801236376E37FFE
:105510003E2B0CD100276776EB7C2046013BEB74D9
:1055200010F0B2F83A462046E17FFFF797FE144BA1
:105530001B6893F82E20134B1C680023934219D24A
:10554000E188B14217D1657EADB9A17E99B108203D
:1055500024F04CFE014668B1E388038041F20173F8
:1055600043802389C380E37F0371074B187B24F0BA
:105570004EFEA576F8BD013304F54074DEE700BFAA
:105580005C520021F83E0021F852002110B504467B
:10559000C07A0FF069FDA378012B05D16376243022
:1055A000BDE8104024F06EBB10BD70B50546042068
:1055B0000C46CE7F13F0A8F8014648B122230370B1
:1055C000E37A4370237BC6708370284613F072F829
:1055D00021462846BDE8704010F04DB9034B9B7C36
:1055E000CB77012380F8E132704700BF403F0021B4
:1055F00008460521FFF7A2BEFFF7D7BF012380F8B9
:10560000E13270472DE9F84306460C46C87A0FF0A0
:105610002BFDB6F87C31B6F8B013DA1DB6F87E3142
:10562000074602FB0133A4F848300023A4F84A30AF
:105630000FF0E8FDB4F84810B6F87E51B6F88031A6
:10564000F26950BB40F2E240491B4B432649274DCB
:10565000096800FB0322791A091169433D8A0A315E
:105660006843C9B223F0A0FCD4E904239B1A034485
:10567000E36440F2E243B6F8801194F86C22594397
:105680001B4BD4F870021B681B8E00FB12330B44BB
:10569000E26C9A421FD2BDE8F88340F2E2484D1B0B
:1056A0005D4308FB0525B4F84A30B7F81090013384
:1056B0009BB203FB09F9A4F84A303B6A294608FB70
:1056C0000939484623F096FF0028ECD02946484681
:1056D00023F090FFC8E7521AE264B4F84820013280
:1056E000A4F84820D4E700BFF03E0021398EE3380B
:1056F0005C5200217FB50546C87A0C460FF0B4FC19
:10570000C37C0646F3B9837C002B00F0E48041792A
:10571000C1B940F2E242038A53437A4A10687A4A96
:10572000301A00115043794A0A30CDE90112F2686B
:10573000C0B200921A4623F0D5FB002800F0CB80BF
:105740000123737121462846FFF75CFF214630464E
:105750000FF00CFE6E4BC5F890336E4BC5F89433CA
:105760006D4B1B681B88E380D5F8B831C4F8E8306E
:10577000B5F8F231A4F838320AF00EFAD5E962230E
:10578000C4F8E40020460FF041FD242012F0BCFFD5
:105790000146002800F095801F230370E37A4370D0
:1057A000237B837094F85632022B03D0032B14BF53
:1057B00001230423CB7094F85732022B03D0032B20
:1057C00014BF012304230B71B4F85C3228464B71DB
:1057D00094F85A32B4F85C22DB03C2F30B029BB29A
:1057E00013431B128B71B4F85E32CB71B4F85E3286
:1057F000C3F303230B72D4F860324B72D4F86032D7
:105800001B0A8B72B4F8623203F00F03CB72D4F828
:1058100064320B73D4F864321B0A4B73B4F86632EB
:1058200003F00F038B73B4F83031CB73B4F830311D
:105830001B0A0B74B4F82C314B74B4F82C311B0ACE
:105840008B7494F86C32CB74D4F870320B75D4F836
:1058500070321B0A4B75B4F872328B7594F874323F
:1058600094F8752203F00F0343EA0213CB7594F802
:105870006A320B7694F86B324B76B4F868328B76DA
:10588000B4F868321B0ACB76E36C0B77E36C1B0A27
:105890004B77B4F84E308B77E36CCB77E36C1B0A15
:1058A00081F82030B4F84E3081F82130B4F8483017
:1058B00081F82230B4F848301B0A81F8233012F006
:1058C000F9FE01232146284684F8473004B0BDE89C
:1058D00070400FF0D0BF2046FFF773FD042024F086
:1058E00085FC014608B904B070BDE388038044F626
:1058F00001334380094B187B04B0BDE8704024F0AD
:1059000086BC00BFF03E0021398EE338856F01016F
:10591000B957010115580101CC3F0021F85200216F
:10592000002310B50C46084681F84730FFF74CFDC0
:10593000204611F037FB2046BDE810400221FFF75A
:10594000FDBC000070B50546C87A0C460FF08CFB14
:10595000384B0646D3E904329A4205D3C378FBB1EB
:10596000204611F049FA1DE001220D21284601F0E0
:105970008DF9214628460FF088FF0023204684F841
:105980004730FFF71EFD214630460FF082FD2046CE
:1059900011F008FB02212046BDE87040FFF7CEBCA5
:1059A00011F094F920460FF091FC337923B9224687
:1059B0002946304611F098FA0023102084F8473029
:1059C00012F0A2FE014670B321230370D4F8E43034
:1059D0004370D4F8E4301B0A8370B4F8E630C37027
:1059E00094F8E7300371E36C4371E36C1B0A837135
:1059F000B4F84E30C3716369037263691B0A437262
:105A0000E38A83722369C37223691B0A0373638A5F
:105A10004373B4F848308373B4F848301B0AC37337
:105A2000284612F047FE214628460FF02EFF01219E
:105A3000B1E700BF403F002170B50646C87A0C466A
:105A40000FF012FB0546214630460FF01EFF2046A0
:105A5000FFF7B4FC214628460FF01BFD204611F04D
:105A6000A1FA2046BDE870400221FFF767BC10B5DF
:105A70000C460FF00AFF204611F094FA2046BDE8CC
:105A800010400221FFF75ABC10B50C460FF0FDFE86
:105A9000204611F087FA44232046E3770221BDE82F
:105AA0001040FFF74BBC000040F67C4238B58B8CB1
:105AB0000546043B9BB293420C4654D80B7E1F2BE9
:105AC00051D80B79012B4ED8CB88B3F5805F4AD2E1
:105AD0000B89B3F5805F46D2CB68B3F5801F42D205
