:10000000302F01205DCA01007F26060015CA0100BD
:1000100015CA010015CA010015CA010015CA010060
:10002000000000000000000000000000F5B8010022
:1000300015CA01000000000049B8010015CA0100FE
:10004000F5B90100F5B90100F5B90100F5B90100F4
:10005000F5B90100F5B90100F5B90100F5B90100E4
:10006000F5B90100F5B90100F5B90100F5B90100D4
:10007000F5B90100F5B90100F5B90100F5B90100C4
:10008000F5B90100F5B90100F5B90100F5B90100B4
:10009000F5B90100F5B90100F5B90100F5B90100A4
:1000A000F5B90100F5B90100F5B90100F5B9010094
:1000B000F5B90100F5B90100F5B90100F5B9010084
:1000C000F5B90100F5B90100F5B90100F5B9010074
:1000D000F5B90100F5B90100F5B90100F5B9010064
:1000E000F5B90100F5B90100F5B90100F5B9010054
:1000F000F5B90100F5B90100F5B90100F5B9010044
:10010000F5B90100F5B90100F5B90100F5B9010033
:10011000F5B90100F5B90100F5B90100F5B9010023
:10012000F5B90100F5B90100F5B90100F5B9010013
:10013000F5B90100F5B90100F5B90100F5B9010003
:10014000F5B90100F5B90100F5B90100F5B90100F3
:04015000F5B90100FC
:04015400FFFFFFFFAB
:1001580081F0004102E000BF83F0004330B54FEA70
:1001680041044FEA430594EA050F08BF90EA020FDD
:100178001FBF54EA000C55EA020C7FEA645C7FEA70
:10018800655C00F0E2804FEA5454D4EB5555B8BF93
:100198006D420CDD2C4480EA020281EA030382EA04
:1001A800000083EA010180EA020281EA0303362D96
:1001B80088BF30BD11F0004F4FEA01314FF4801C69
:1001C8004CEA113102D0404261EB410113F0004F7B
:1001D8004FEA03334CEA133302D0524263EB430332
:1001E80094EA050F00F0A780A4F10104D5F1200ED0
:1001F8000DDB02FA0EFC22FA05F2801841F100012B
:1002080003FA0EF2801843FA05F359410EE0A5F1FE
:1002180020050EF1200E012A03FA0EFC28BF4CF02F
:10022800020C43FA05F3C01851EBE37101F00045E5
:1002380007D54FF0000EDCF1000C7EEB00006EEBF2
:100248000101B1F5801F1BD3B1F5001F0CD349087C
:100258005FEA30004FEA3C0C04F101044FEA4452D3
:1002680012F5800F80F09A80BCF1004F08BF5FEA5A
:10027800500C50F1000041EB045141EA050130BD3A
:100288005FEA4C0C404141EB0101013C28BFB1F54C
:10029800801FE9D291F0000F04BF01460020B1FA97
:1002A80081F308BF2033A3F10B03B3F120020CDA6A
:1002B8000C3208DD02F1140CC2F10C0201FA0CF048
:1002C80021FA02F10CE002F11402D8BFC2F1200CAD
:1002D80001FA02F120FA0CFCDCBF41EA0C01904063
:1002E800E41AA2BF01EB0451294330BD6FEA0404AC
:1002F8001F3C1CDA0C340EDC04F11404C4F1200297
:1003080020FA04F001FA02F340EA030021FA04F3A8
:1003180045EA030130BDC4F10C04C4F1200220FAFF
:1003280002F001FA04F340EA0300294630BD21FA3D
:1003380004F0294630BD94F0000F83F4801306BF03
:1003480081F480110134013D4EE77FEA645C18BFF7
:100358007FEA655C29D094EA050F08BF90EA020F8E
:1003680005D054EA000C04BF1946104630BD91EA86
:10037800030F1EBF0021002030BD5FEA545C05D189
:100388004000494128BF41F0004130BD14F58004C8
:100398003CBF01F5801130BD01F0004545F0FE413C
:1003A80041F470014FF0000030BD7FEA645C1ABF71
:1003B800194610467FEA655C1CBF0B46024650EAA8
:1003C800013406BF52EA033591EA030F41F40021D4
:1003D80030BD00BF90F0000F04BF0021704730B55A
:1003E8004FF4806404F132044FF000054FF000012F
:1003F80050E700BF90F0000F04BF0021704730B5F0
:100408004FF4806404F1320410F0004548BF4042C4
:100418004FF000013EE700BF42004FEAE2014FEA19
:1004280031014FEA02701FBF12F07F4393F07F4FF4
:1004380081F06051704732F07F4208BF704793F0F7
:100448007F4F04BF41F40021704730B54FF460740A
:1004580001F0004521F000411CE700BF50EA01020D
:1004680008BF704730B54FF000050AE050EA0102B6
:1004780008BF704730B511F0004502D5404261EB26
:1004880041014FF4806404F132045FEA915C3FF467
:10049800D8AE4FF003025FEADC0C18BF03325FEA04
:1004A800DC0C18BF033202EBDC02C2F1200300FAB5
:1004B80003FC20FA02F001FA03FE40EA0E0021FADA
:1004C80002F11444BDE600BF70B54FF0FF0C4CF4C8
:1004D800E06C1CEA11541DBF1CEA135594EA0C0F7A
:1004E80095EA0C0F00F0DEF82C4481EA030621EAB5
:1004F8004C5123EA4C5350EA013518BF52EA0335F0
:1005080041F4801143F4801338D0A0FB02CE4FF0A1
:100518000005E1FB02E506F00042E0FB03E54FF0D1
:100528000006E1FB03569CF0000F18BF4EF0010EC9
:10053800A4F1FF04B6F5007F64F5407404D25FEAC5
:100548004E0E6D4146EB060642EAC62141EA555178
:100558004FEAC52040EA5E504FEACE2EB4F1FD0CBA
:1005680088BFBCF5E06F1ED8BEF1004F08BF5FEA38
:10057800500E50F1000041EB045170BD06F00046EA
:1005880046EA010140EA020081EA0301B4EB5C0497
:10059800C2BFD4EB0C0541EA045170BD41F480118F
:1005A8004FF0000E013C00F3AB8014F1360FDEBFB4
:1005B800002001F0004170BDC4F10004203C35DA90
:1005C8000C341BDC04F11404C4F1200500FA05F313
:1005D80020FA04F001FA05F240EA020001F00042B4
:1005E80021F0004110EBD37021FA04F642EB06012A
:1005F8005EEA430E08BF20EAD37070BDC4F10C0454
:10060800C4F1200500FA04F320FA05F001FA04F217
:1006180040EA020001F0004110EBD37041F1000103
:100628005EEA430E08BF20EAD37070BDC4F120050E
:1006380000FA05F24EEA020E20FA04F301FA05F276
:1006480043EA020321FA04F001F0004121FA04F21E
:1006580020EA020000EBD3705EEA430E08BF20EAEE
:10066800D37070BD94F0000F0FD101F00046400028
:1006780041EB010111F4801F08BF013CF7D041EAAA
:10068800060195F0000F18BF704703F000465200AE
:1006980043EB030313F4801F08BF013DF7D043EA7F
:1006A8000603704794EA0C0F0CEA135518BF95EA35
:1006B8000C0F0CD050EA410618BF52EA4306D1D1BC
:1006C80081EA030101F000414FF0000070BD50EADB
:1006D800410606BF1046194652EA430619D094EA65
:1006E8000C0F02D150EA013613D195EA0C0F05D14F
:1006F80052EA03361CBF104619460AD181EA0301A3
:1007080001F0004141F0FE4141F470014FF000005A
:1007180070BD41F0FE4141F4780170BD70B54FF0F5
:10072800FF0C4CF4E06C1CEA11541DBF1CEA135575
:1007380094EA0C0F95EA0C0F00F0A7F8A4EB050457
:1007480081EA030E52EA03354FEA013100F088804E
:100758004FEA03334FF0805545EA131343EA126317
:100768004FEA022245EA111545EA10654FEA0026CC
:100778000EF000419D4208BF964244F1FD0404F585
:10078800407402D25B084FEA3202B61A65EB0305E1
:100798005B084FEA32024FF480104FF4002CB6EB9E
:1007A800020E75EB030E22BFB61A754640EA0C001E
:1007B8005B084FEA3202B6EB020E75EB030E22BF5E
:1007C800B61A754640EA5C005B084FEA3202B6EB9F
:1007D800020E75EB030E22BFB61A754640EA9C005E
:1007E8005B084FEA3202B6EB020E75EB030E22BF2E
:1007F800B61A754640EADC0055EA060E18D04FEAEC
:10080800051545EA16754FEA06164FEAC30343EA8B
:1008180052734FEAC2025FEA1C1CC0D111F4801F58
:100828000BD141EA00014FF000004FF0004CB6E751
:1008380011F4801F04BF01430020B4F1FD0C88BFF0
:10084800BCF5E06F3FF6AFAEB5EB030C04BFB6EBFB
:10085800020C5FEA500C50F1000041EB045170BDEE
:100868000EF0004E4EEA113114EB5C04C2BFD4EB1B
:100878000C0541EA045170BD41F480114FF0000E9F
:10088800013C90E645EA060E8DE60CEA135594EA1B
:100898000C0F08BF95EA0C0F3FF43BAF94EA0C0F1E
:1008A8000AD150EA01347FF434AF95EA0C0F7FF493
:1008B80025AF104619462CE795EA0C0F06D152EAE7
:1008C80003353FF4FDAE1046194622E750EA4106CB
:1008D80018BF52EA43067FF4C5AE50EA41047FF4DC
:1008E8000DAF52EA43057FF4EBAE12E74FEA41023F
:1008F800B2F1E04324BFB3F5001CDCF1FE5C0DD976
:1009080001F0004C4FEAC0024CEA5070B2F1004FBF
:1009180040EB830008BF20F00100704711F0804FC2
:1009280021D113F13872BCBF01F00040704741F487
:1009380080114FEA5252C2F11802C2F1200C10FA8B
:100948000CF320FA02F018BF40F001004FEAC1236F
:100958004FEAD32303FA0CFC40EA0C0023FA02F313
:100968004FEA4303CCE77FEA625307D150EA0133E9
:100978001EBF4FF0FE4040F44000704701F00040B9
:1009880040F0FE4040F40000704700BF7BB972B9E8
:100998000029BEBF00204FF0004106E008BF002834
:1009A8001CBF6FF000414FF0FF3000F075B8ADF19B
:1009B800080C6DE904CE002909DB002B1ADB00F0D6
:1009C8006AF9DDF804E0DDE9022304B0704740422B
:1009D80061EB4101002B1BDB00F05DF9DDF804E061
:1009E800DDE9022304B0404261EB4101524263EB6E
:1009F80043037047524263EB430300F04CF9DDF8C0
:100A080004E0DDE9022304B0404261EB4101704794
:100A1800524263EB430300F03EF9DDF804E0DDE900
:100A2800022304B0524263EB4303704753B94AB9F7
:100A3800002908BF00281CBF4FF0FF314FF0FF30DE
:100A480000F02AB8ADF1080C6DE904CE00F023F9E6
:100A5800DDF804E0DDE9022304B07047D0B50022D8
:100A68000B4B06460F46FFF72FFD00F09FF8044694
:100A7800FFF7B0FC0022074BFFF726FD02460B46A6
:100A880030463946FFF768FB00F090F82146D0BDA4
:100A98000000F03D0000F041704700BF4FF0FF3C00
:100AA80006E000BF4FF0010C02E000BF4FF0010C60
:100AB8004DF804CD4FEA410C7FEA6C5C4FEA430CD9
:100AC80018BF7FEA6C5C1BD001B050EA410C0CBF28
:100AD80052EA430C91EA030F02BF90EA020F00208A
:100AE800704710F1000F91EA030F58BF994208BFF1
:100AF80090422CBFD8176FEAE37040F001007047AE
:100B08004FEA410C7FEA6C5C02D150EA013C07D104
:100B18004FEA430C7FEA6C5CD6D152EA033CD3D04F
:100B28005DF8040B704700BF8446104662468C4649
:100B38001946634600E000BF01B5FFF7B7FF00287C
:100B480048BF10F1000F01BD4DF808EDFFF7F4FFA5
:100B58000CBF012000205DF808FB00BF4DF808ED30
:100B6800FFF7EAFF34BF012000205DF808FB00BF53
:100B78004DF808EDFFF7E0FF94BF012000205DF875
:100B880008FB00BF4DF808EDFFF7CEFF94BF01202A
:100B980000205DF808FB00BF4DF808EDFFF7C4FF23
:100BA80034BF012000205DF808FB00BF4A0011D2C5
:100BB80012F5001211D20DD56FF47873B3EB6252AF
:100BC8000ED44FEAC12343F0004343EA505323FABB
:100BD80002F070474FF00000704750EA013002D130
:100BE8004FF0FF3070474FF0000070474FEA410C5C
:100BF8007FEA6C5C02D150EA013C0AD14FEA430C0F
:100C08007FEA6C5C02D152EA033C02D14FF000004B
:100C180070474FF0010070474FEA410212F5001289
:100C280015D211D56FF47873B3EB625212D94FEA2B
:100C3800C12343F0004343EA505311F0004F23FA15
:100C480002F018BF404270474FF00000704750EA6A
:100C5800013005D111F0004008BF6FF00040704727
:100C68004FF00000704700BF38B50022002304464B
:100C78000D46FFF773FF28B920462946BDE83840DE
:100C8800FFF7ECBE204605F10041FFF7E7FE4042C2
:100C980061EB410138BD2DE9F04786468C46084690
:100CA800089E154674461946002B40F0C1808542BF
:100CB800B2FA82F245D94AB1C2F1200300FA02FC25
:100CC800954094402EFA03F343EA0C0C4FEA154E74
:100CD800A8B2230CBCFBFEF80EFB18CC08FB00F9ED
:100CE80043EA0C43994528D9EB1808F1FF3704D299
:100CF800994502D9A8F102072B44A3EB0903A4B232
:100D0800B3FBFEFC0EFB1C330CFB00F044EA03446F
:100D1800A04214D92C190CF1FF3304D2A04202D9F5
:100D2800ACF102032C44241A43EA07401EB1D44014
:100D3800002334607360BDE8F0874746DDE763460B
:100D4800F1E792BB431B01214FEA154EAFB2200CCD
:100D5800B3FBFEFC0EFB1C330CFB07F840EA034315
:100D6800984561D9EB180CF1FF3004D2984502D9A7
:100D7800ACF102002B44A3EB0803A4B2B3FBFEFCC6
:100D88000EFB1C330CFB07F744EA0344A7424DD97A
:100D98002C190CF1FF3304D2A74202D9ACF102039B
:100DA8002C44E41B43EA0040C0E7C2F1200395400D
:100DB800944020FA03F12EFA03F34FEA154E9040BF
:100DC800AFB20343B1FBFEFC0EFB1C10190C0CFB6D
:100DD80007F841EA0041884522D969180CF1FF302B
:100DE80004D2884502D9ACF102002944A1EB0801DC
:100DF8009BB2B1FBFEFC0EFB1C110CFB07F743EA90
:100E080001439F420ED9EB180CF1FF3104D29F42E7
:100E180002D9ACF102012B44DB1B41EA004193E704
:100E28006046E3E76146F7E76046A4E76346B8E74C
:100E3800834206D916B9002108467CE7C6E900E0D6
:100E4800F9E7B3FA83F78FB9834201D3724508D81B
:100E5800BEEB020460EB030301209C461EB900218F
:100E680069E73846FAE7C6E9004CF8E7C7F1200C0D
:100E7800BB400EFA07F522FA0CF42EFA0CF1BA4030
:100E88001C4320FA0CF3B8404FEA144901431FFAF7
:100E980084FEB3FBF9F809FB18300B0C08FB0EFABB
:100EA80043EA00439A4540D9E31808F1FF3004D2D9
:100EB8009A4502D9A8F102002344A3EB0A0389B298
:100EC800B3FBF9F809FB183308FB0EFE41EA0341AE
:100ED8008E452CD9611808F1FF3304D28E4502D90A
:100EE800A8F10203214443EA0040A1EB0E01A0FB54
:100EF80002984145CE46434602D306D14D4504D219
:100F08000138B9EB020E68EB0403002EA7D0B5EB4D
:100F18000E0261EB030101FA0CFC22FA07F3F94017
:100F28004CEA0303C6E9003199E74046C5E7434662
:100F3800D9E770B4840746D04C1E002941D0D5B2F9
:100F4800034602E0611EE4B30C4603F8015B99070F
:100F5800F8D1032C2ED9D5B245EA05250F2C45EA40
:100F6800054519D9264603F11001103E0F2E41F808
:100F7800105C41F80C5C41F8085C41F8045C01F134
:100F88001001F2D8A4F1100121F00F0104F00F04B0
:100F98001031032C0B440DD91E4621460439032970
:100FA80046F8045BFAD8211F21F0030104310B44F1
:100FB80004F003042CB1D2B21C4403F8012BA34261
:100FC800FBD170BC70470C460346C2E710F8012BF2
:100FD80011F8013B012A28BF9A42F7D0D01A70476E
:100FE800034613F8012B002AFBD1181A0138704761
:100FF8002DE9F04D2DED028B88B000AF0546406815
:101008008368DB683A219847041EC0F23381686818
:1010180083681B6907F118021E219847041EC0F255
:101028002981686883681B6907F1100220219847A5
:10103800041EC0F21F81686883681B6907F10802F3
:1010480021219847041EC0F21581914B1B6803F0BB
:101058000703022B40F215812E68B869FFF7CAF919
:1010680004460D46F869FFF7C5F987A3D3E90023BD
:10107800FFF754FB02460B4620462946FFF76EF859
:1010880000220023FFF76AF841EC180B3869FFF7D4
:10109800B1F904460D467869FFF7ACF97AA3D3E9AC
:1010A8000023FFF73BFB02460B4620462946FFF785
:1010B80055F80022774BFFF707FA00220023FFF7C5
:1010C8004DF882468B46B868FFF794F904460D46FA
:1010D800F868FFF78FF96CA3D3E90023FFF71EFB2D
:1010E80002460B4620462946FFF738F80022694B8E
:1010F800FFF7EAF900220023FFF730F841EC170B5D
:101108006D4600233B7102237B711C230C2213F0D4
:10111800070F02D10832083304E004320433F6E73B
:101128000432043313F0070FFAD10832083301E010
:101138000432043313F00704FAD102F10A0C6346AF
:10114800213222F00702ADEB020D6A46BCF1000F16
:101158007AD002F11008BCF1030F73D9B8F1000F6F
:1011680004D0BCF1040F01DD4B4B536100233B70ED
:1011780002237B70B8F1000F03D0BCF1080F00DD2B
:1011880096611C210C200B4611F0070F0DD18646E5
:10119800B8F1000F05D0604503DA08EB000181EDD6
:1011A800008B0EF1080E083305E004300431EAE73D
:1011B8000EF1040E0433194613F0070FF8D17646E2
:1011C800B8F1000F05D0E64503DA08EB0E03C3E9D2
:1011D80000AB083601F1080301E00436043313F0CC
:1011E800070FFAD13346B8F1000F05D0664503DA88
:1011F80008EB060181ED007B03F108060A33B8F11C
:10120800000F0DD008EB0601002007E000F1200ECA
:10121800BE441EF820EC01F801EB01300128F5D995
:101228009C4501DA6FF01B03B8F1000F0CD0C6F330
:1012380087063E7100217971B9710121F9717868C9
:10124800106101E06FF01B0300216FF300016FF3E1
:1012580041016FF382016FF3C501032060F3881128
:1012680063F353216FF31F5110320023084815F020
:10127800BFFAAD4620462037BD46BDEC028BBDE81F
:10128800F08D0024F6E700BF0000000080842E41A6
:101298003412002000408F405C3607000000000038
:1012A80010B584460C460C48ACFB000108A3D3E9F2
:1012B80000234FF0070E0EFB0C11FFF7B7FB074B8F
:1012C8001B68074A02FB0300204410BDAFF30080EF
:1012D80000CA9A3B000000008D49FD1A10800020CA
:1012E8000080841E0000000038B560B30546002465
:1012F800042C24D804EB4403174850F833300BB1BE
:101308000134F5E704EB440C00EBCC0340F83C5007
:101318001A619FED0F7B83ED027B59610F4B1B78A0
:101328004BB90F4B186830B183681B680221984786
:101338000A4B01221A70204616F0ACF901E06FF052
:101348000B04204638BD6FF01504FAE7AFF30080B0
:10135800FFFFFFFFFFFFFFFFC82B00207EA8002034
:10136800788000200000000010B5082140F60140F8
:101378001EF04AFAD8B1044608210C3030F07EFE3F
:1013880002460F4B93F8903013F0010F0BD10D4824
:101398004FF0005162F0B9FB0022214640F60140AF
:1013A8001EF084FA10BD04A1D1E90001F2E76FF044
:1013B8006800F7E7AFF30080908800020080002003
:1013C80000000020108800022DE9F04786B0804612
:1013D800894617461E469DF838A03A2234493846B1
:1013E80068F0BAF804460F223249304668F0B4F87B
:1013F8000023049305939C4220DB0546002824DB48
:1014080004AB82B2A1B2484668F09DF8034618B30F
:1014180010F1160F02D1BAF1000F0CD00193254B31
:1014280053F825300093224B53F82430224A0121E7
:1014380040465FF087FE06B0BDE8F0873B461F4A8E
:10144800012140465FF07EFEF5E733461C4A012144
:1014580040465FF077FEEEE7D9F800900498FEF773
:10146800C9FF06460F460598FEF7C4FF0EA3D3E949
:101478000023FFF753F902460B4630463946FEF77C
:101488006DFECDE902010B4B53F825300193084B53
:1014980053F8243000934B460A4A022140465FF035
:1014A80051FEC8E7AFF300800000000080842E41A1
:1014B800100C0020D40B0020A8CB070078CB070025
:1014C80090CB0700D8CB070030B589B00C9D002819
:1014D80039D00446002943D0D0F8200110F0010F7C
:1014E8004BD10020C4F80801C4F80C0104F5887039
:1014F800C4F81001C4F8140104F58C70C4F818017C
:10150800C4F81C01002D45D02879002844D10120B9
:10151800C4F820019FED227B8DED067B002004900E
:1015280003930290019000941F4B204640F084FCE6
:1015380025B1296811B1204640F04AFA20466CF0DE
:10154800DAFE09B030BD194C4FF4327322461849FF
:1015580018485EF005FC4FF43271204610F018FB75
:10156800124C40F2C9232246134912485EF0F8FB98
:1015780040F2C921204610F00BFB0C4C40F2CA2364
:1015880022460E490B485EF0EBFB40F2CA2120468A
:1015980010F0FEFA0120BBE740F20110B8E700BFE7
:1015A800FFFFFFFFFFFFFFFFF52D04009C1208005F
:1015B80064130800240407006C130800741308005F
:1015C8002DE9F04F1F469DB000230C4682460F922E
:1015D80018934FF00008984B4FF000091D682846F3
:1015E800FFF7FEFC22468346179213782B2B3BD03D
:1015F8002CD80D2B26D8082B26D8002B2FD000232B
:101608000D93179E3378302B74D1737803F0DF0372
:10161800582B65D10D9B17A9884A5046019318ABE2
:101628000297009319AB5CF053FA10F007050446D3
:1016380035D0062D1AD10F9B0BB101361E604246DC
:101648004B4637E0202BDAD10132CDE72D2BD6D10E
:1016580001230D93531C17935378002BD1D10F9B63
:10166800002BECD01C60EAE70023F2E7189A3AB1A5
:1016780035211AA86DF069FF189950465CF0E8FC0E
:10168800013D199A042D06D8DFE805F01903222533
:101698001900DDE91A89210701D549F000490F9B96
:1016A80013B1179B0F9A13600D9B002BC7D04246AE
:1016B80009F1004343EC102B1DB0BDE8F08FDDE9C4
:1016C8001A8302F2334223F4801343EA0259E2E711
:1016D800DFF86C91DFE76FF000494FF0FF38DAE789
:1016E800179B5A1C17925B78302BF9D0002BD6D059
:1016F800012300E00023002704930A22179BCDE969
:1017080005770A9317980678A6F13003D9B2092904
:1017180024D95A4629466DF066FB00282DD00020B2
:101728003246059D83460346652A01D0452A13D1D2
:101738001DB9049A024392D00025179C621C179287
:1017480062782B2A6ED02D2A72D04FF0000CA2F1AD
:10175800300109297AD91794002699E005990130B2
:1017680008291790D7BF069902FB073702FB0133F8
:101778000693059B01330593C4E7179B03EB0B0204
:10178800179213F80B20059BA3B383461D46A2F1BD
:101798003003092B12D90123C6E7179B01305A1CC5
:1017A80017925A78302AF8D0A2F13103082B00F2A8
:1017B800EF8483460020179B05460A93303A00F1D0
:1017C800010311D09B4400EB050C2B460A2163450D
:1017D80012D12B180135082B054419DC06990A2368
:1017E80003FB012306930023179A1846511C1791EF
:1017F8005278CCE70598D5E7082B03F1010303DC01
:10180800069E4E430696E2E7102BD8BF4F43DEE70D
:101818000F2BDCBF0A2303FB0727E4E74FF0000B7D
:10182800012386E74FF0000CA21C1792A2788EE7DE
:101838004FF0010CF8E700BFA44608003046080046
:101848000000F07F179A511C17915278302AF9D06E
:10185800A2F1310108293FF67FAF303A0792179A73
:101868000C92179A561C17965278A2F1300EBEF1B8
:10187800090F38D90C99761A082E44F61F6603DC2E
:1018880007998E42A8BF0E46BCF1000F00D07642E1
:10189800002D4FD1049908437FF401AF002B7FF44A
:1018A800DEAE692A29D026DC492A26D04E2A7FF4C2
:1018B800D6AE9B4917A86DF0B8FC00283FF4CFAE10
:1018C800179B1B78282B2FD11AAA964917A86DF0B9
:1018D800C0FC052828D11B9BDDF8688043F0FF4930
:1018E80049F4E009DBE6079E0A2101FB0621A1F184
:1018F80030020792B5E76E2AD9E78B4917A86DF031
:1019080094FC00283FF4ABAE179B17A88749013B0E
:1019180017936DF08AFC10B9179B01331793DFF802
:101928001C924FF00008BAE6814801F079FA59ECA8
:10193800108BB4E6A6EB0B0306982C460C93059B7C
:10194800002B08BF2B46102D0593A8BF1024FEF7C7
:1019580041FD092D8046894613DC0C9B002B3FF482
:101968009EAE0C9B78DD162B45DC7249424601EB96
:10197800C3014B46D1E90001FEF7A6FD8046894622
:101988008DE66C4B03EBC40353E91223FEF79CFD71
:10199800804689463846FEF71DFD02460B464046FE
:1019A8004946FEF7DBFB0F2D80468946D5DD2C1B0B
:1019B8000C9B1C44002C25DC00F0A280644214F02F
:1019C8000F020AD05B4B4046494603EBC203D3E9FA
:1019D8000023FEF7A3FE80468946241100F090807C
:1019E8001F2C40F3B18022234FF000084FF000096C
:1019F800CAF8003053E6C5F125030C9A934219DA68
:101A08002C1B144414F00F030AD04A49424601EB38
:101A1800C3014B46D1E90001FEF756FD80468946D1
:101A280034F00F046CD0B4F59A7F41DD2223CAF854
:101A3800003074E7C5F10F053E4C42464B4604EBB7
:101A4800C501D1E90001FEF73FFD0C9B5D1B04EBCE
:101A5800C504D4E900238FE71633A8DBABEB0602F5
:101A6800344B4046494603EBC203D3E90023FEF753
:101A780055FE83E7002306932223DFF8C0904FF03A
:101A88000008CAF80030189950465CF0E1FA069947
:101A980050465CF0DDFA059950465CF0D9FA109989
:101AA80050465CF0D5FA079950465CF0D1FAF6E555
:101AB80000232411404649461F4F0493012C22DC81
:101AC8000BB180468946049BA9F154791A494246CC
:101AD80001EBC3014B46D1E90001FEF7F5FC174BBA
:101AE8000A4680460B4016498B429FD8A1F58011C3
:101AF8008B4286BFDFF84C904FF0FF3802F15479E3
:101B0800002304934BE0E20704D5D7E90023FEF74E
:101B1800DBFC0123049A6410083701320492CDE7F4
:101B2800398F08001C460800318F0800638F0800B1
:101B3800198E080028030700000307000000F07F43
:101B48000000A07CFFFFEF7F14F0100340464946D9
:101B5800AA4F18BF6A2304930023E20704D5D7E9E4
:101B68000023FEF7B1FC0123641007F10807F4D144
:101B78000BB180468946049B43B1C9F30A524946D2
:101B8800C2F16B03002B4EDC6A230493002200236E
:101B980040464946FEF7D8FF00287FF424AF069B4D
:101BA8005046059A00932B460A995CF0BBFA1090B0
:101BB80000283FF43BAF0C9BABEB060B002BB4BFEC
:101BC8005B46002311930C9B23EAE37313930023D2
:101BD80007930593109B504659685CF0F9F90690F5
:101BE80000283FF449AF109B0C301A6903F10C012F
:101BF800023292006CF064FF1AAA19A9504649EC07
:101C0800108BCDE90A895CF069FD189000283FF433
:101C180033AF012150465CF0CFFA03460590D0B9A6
:101C28000023059328E71F2B0EDD342B4FF0000807
:101C3800DBBF4FF0FF33C2F14B024FF05C799340AA
:101C4800D8BF03EA01099FE74FF0FF3202FA03F316
:101C580003EA080898E7199C1A9A002CA9BF119B57
:101C6800139BE718139EB8BF1E1B049BB8BF119F98
:101C7800E41A634B1444C2F13602013C9C4280F2E0
:101C8800B0801B1B01251F2BA2EB0302CDBFC4F1A3
:101C98007F449D40002404F57F04C2BF04F57B44C3
:101CA800E23405FA04F407EB020B049B16445F4583
:101CB8001E443B46A8BF5B46B342A8BF3346002B31
:101CC800C2BFABEB030BF61AFF1A119B002B16DDF4
:101CD8001A46059950465CF02FFB059000289FD0C6
:101CE8000146189A50465CF07DFA0E9000283FF4A1
:101CF800C3AE189950465CF0ABF90E9B1893BBF134
:101D0800000F71DC0C9B002B08DD139A50460699D6
:101D18005CF012FB069000283FF4ACAE002E08DD04
:101D28003246069950465CF061FB069000283FF465
:101D3800A1AE002F08DD3A46059950465CF056FBE7
:101D4800059000283FF498AE069A504618995CF022
:101D5800B9FB079000283FF48FAEC36805990E932E
:101D68000023C3606DF0A4FB00284BDA0E9B53EAF6
:101D7800080340F0BC80C9F31303002B40F0B78080
:101D880029F000431B0D1B05B3F1D66F40F2AF805D
:101D9800079B5B6923B9079B1B69012B40F3A7804D
:101DA8000122079950465CF021FB059907906DF0D8
:101DB8007FFB002840F39B8029F00043049A1B0D09
:101DC8001B05002A79D0B3F1D66F6DD8B3F15C7FCB
:101DD80046D84FF000084FF000092223CAF8003017
:101DE80051E6002401255EE75A46189950465CF0F2
:101DF800FDFA1890002885D13EE600BFD8020700FA
:101E080002FCFFFFCB4640F0A3800E9AC9F31303F0
:101E1800002A40D09C4A934258D1049B42467BB941
:101E2800B8F1FF3F40F08980984B99453FF424AEC4
:101E3800974BDDF8108009EA030303F5801922E6C1
:101E4800934B09EA0303B3F1D46F16D918F10101D2
:101E58001BD18E4A91453FF40FAE03F58019804699
:101E68008C4B404649460022FEF72EFB0B46804627
:101E7800894603437FF407AEAFE71E0D4FF0FF31ED
:101E8800C6F16B06B1408845E7D0002C5ED014EA55
:101E98000B0FE5D01EE0002B4AD1B8F1000F8BD014
:101EA80064B314EA0B0F2BE0A3F580134FF0FF384F
:101EB8006FEA13596FEA0959D2E7A3F580134FF077
:101EC800FF386FEA13596FEA0959DCE59CB114EA47
:101ED800090F0CD040464946049A6CF0CBFFDDE967
:101EE8000A0153EC102BFEF739F980468946049B0A
:101EF800002BB5D1C7E515EA080FEAE718EA050F80
:101F0800F5D0049A404649466CF0B4FFDDE90A0171
:101F180053EC102BFEF720F90022002304460D464F
:101F2800FEF712FE00287FF454AFA046A946DEE76C
:101F3800002CB6D115EA080FE2E724B114EA090F1C
:101F48003FF4A1ADC6E718EA050FF9E72A42A0E772
:101F5800059907986DF0C7FA00224FF0804355ECB9
:101F6800104B20462946FEF703FE00286DD00E9B35
:101F7800002B78D1B8F1000F56D1C9F31303002B09
:101F880059D10022444B20462946FEF7E7FD002898
:101F980058D1204629460022404BFEF795FA0446C0
:101FA8000D4605F1004308940993394B0BEA0303E6
:101FB8001293129A3A4B9A42DDE9086740F0A980D9
:101FC800ABF1547949EC108B5CF014FBDDE9082384
:101FD80051EC100BFEF778FA42464B46FEF7BEF876
:101FE8000B462B4980462F4A194091425CD90B9ADF
:101FF800264B9A4203D10A9B01333FF43DADDFF8EB
:102008008C904FF0FF38189950465CF021F80699EB
:1020180050465CF01DF8059950465CF019F8079990
:1020280050465CF015F8D5E5B8F1010F03D1B9F1C8
:10203800000F3FF4CEAE0024174D9FED0F7B8DEDC2
:10204800087BB2E70024154DABE7144B2046294620
:102058000022FEF739FA0E9B04460D46002BA0D04D
:10206800CDE90845A1E79FED067B55EC174B8DEDB3
:10207800087B9AE7AFF30080000000000000F0BF83
:10208800000000000000F03FFFFF0F00FFFFEF7FA0
:102098000000F07F000050390000F03F0000E03FF2
:1020A8000000E07FFFFF9F7C03F15479049B4E46BC
:1020B800002BA8D129F00043129A1B0D1B059A4248
:1020C800A1D120462946FEF7CFFDC9F31306FEF736
:1020D800CDF90B4602462946204646EA0806FEF791
:1020E8003BF80E9B04460D461E434BD02EA3D3E966
:1020F8000023FEF733FD00287FF4C5AC20462946AF
:102108002BA3D3E90023FEF747FD00283FF47BAF5C
:10211800B9E4049B13B3129BB3F1D46F1ED82046C5
:10212800294625A3D3E90023FEF722FD90B12946CD
:102138002046FEF73BFD012838BF0120FEF74AF98B
:102148000E9B04460D46D3B901F100431490159334
:10215800DDE9146707F1D663129A9F1A9DED0A0B01
:102168005CF048FA3046394653EC102BFEF7ACF9D0
:10217800DDE90A23FDF7F2FF8046894696E7CDE9B7
:102188001445E5E70EA3D3E90023FEF7E7FCBCE717
:10219800652A3FF443AB452A3FF440AB0123FFF7E0
:1021A80079BB00BFAFF300809535A094FFFFDF3FF8
:1021B80035E5AF350000E03F0000C0FFFFFFDF411D
:1021C8009535A094FFFFCF3F2DE9F04F476A97B0B0
:1021D8008346209E08910C92129355EC104B8DED7E
:1021E800000B7FB910205AF009FC0246CBF82400F6
:1021F80020B9A74BEA21A7485AF0D0FBC0E90177DC
:102208000760C760DBF82430196859B15A680123A0
:10221800584693404A608B605BF01AFFDBF8243025
:1022280000221A602B1EB7BF23F0004300230122AF
:102238000193A8BF3360019F974BB8BF3260BB437F
:1022480019D142F20F73129A1360C7F31303234391
:1022580000F0DB85219B53B9904B21E0904B039311
:102268000833219A1360039817B0BDE8F08F8B4BA1
:1022780003930333F5E79DED007B0022002351EC27
:10228800170B8DED0A7BFEF75FFC804650B10123EA
:10229800129A1360219B13B1824B219A1360824BCF
:1022A8000393E0E7C7F30A5614AA15A958469DED0B
:1022B8000A0B5CF013FA0290002E76D00B9BA6F264
:1022C800FF36CDF84C80C3F3130343F07F53DDE9A9
:1022D8000A0143F4401319460022744BFDF73CFFF2
:1022E80065A3D3E90023FEF7EFF865A3D3E900233C
:1022F800FDF734FF04460D463046FEF77BF862A32F
:10230800D3E90023FEF7E0F802460B4620462946AB
:10231800FDF724FF04460D46FEF77EFC0022074623
:10232800002320462946FEF719FC40B13846FEF73F
:1023380061F822462B46FEF707FC00B9013F162F2D
:1023480052D85B4B03EBC703DDE90A01D3E900234D
:10235800FEF704FC002849D0013F00231193149B89
:102368009B1B5A1E4CBFC3F101030023079245BFB4
:102378000693002306930793002F39DB079B1097DA
:102388003B44079300230993089B092B66D8052B28
:10239800C5BF043B002401240893089B023B032B80
:1023A80067D8DFE803F02D3A3859DDE914631E4495
:1023B80006F23243202BC9BFC3F14003C3F1200307
:1023C8009F4006F21243D8BF04FA03F006F1FF3625
:1023D800C4BF24FA03F347EA0300FDF7FBFF012219
:1023E800A1F1F873139276E70123B7E71190B6E7E6
:1023F800069BDB1B06937B42099300231093C3E7DC
:1024080000230D930C9B002B56DC012399461A469A
:1024180004930C920CE00123F3E700230D930C9B2B
:10242800FB1803F1010904934B46012BB8BF0123A4
:10243800DBF824000021042202F114059D423FD953
:10244800416058465BF0C4FD039000283BD1194B0E
:1024580002464FF4D571CEE60123DFE701240023BD
:102468000D9408934FF0FF330022994604931223EA
:10247800CFE701230D93F5E761436F63A787D23F49
:10248800B3C8608B288AC63FFB799F501344D33F5B
:102498006D8F0800848F08000000F07F698F0800A6
:1024A800608F08003D8F08003C8F08000000F83F4F
:1024B80028030700E08F08000C9B99460493B7E7B0
:1024C80001315200B8E7DBF82430B9F10E0F039A56
:1024D8001A606FD8002C6DD0002F36DD07F00F0280
:1024E800A04BF8054FEA271403EBC20393ED007BDA
:1024F8008DED0E7B17D59C4B04F00F044FF00308AD
:10250800D3E90823DDE90A01FEF708F9CDE900015E
:10251800954D5CB9DDE90E23DDE90001FEF7FEF813
:10252800CDE900012BE04FF00208F1E7E10709D5FA
:1025380008F10108DDE90E01D5E90023FDF7C4FF24
:10254800CDE90E0164100835E3E700F007817C420D
:10255800844B854D4FF0020804F00F02241103EB61
:10256800C203DDE90A01D3E90023FDF7ADFF00232B
:10257800CDE90001002C40F0E580002BD0D1119B63
:10258800DDE90045002B00F04C810022774B204606
:102598002946FEF7E3FA002800F04381B9F1000F5D
:1025A80000F03F81049B002B00F3E480DDE90A344E
:1025B800CDE90034159B002B02DB0E2F40F342823D
:1025C8000D9A002A40F06782099C0025DDF81880E2
:1025D800B8F1000F0DD0079B002B0ADD4345069A82
:1025E800A8BF4346D21AA8EB03080692079AD31A43
:1025F8000793099B0BB30D9B002B00F0A682002CC0
:1026080000F0A1822946224658465BF095FE029AC0
:102618000146054658465BF0E5FD029906465846D0
:102628005BF016FD099B1B1B099300F09182099A28
:10263800314658465BF080FE0290012158465BF017
:10264800BBFD109B0446002B00F084821A4601460D
:1026580058465BF071FE089B0446012B03DC009B87
:10266800002B00F07C820026236904EB83031869A1
:102678006CF0CFFEC0F120001096079B184410F0B4
:102688001F0000F09182C0F12003042B40F38182E7
:10269800C0F11C00069B034480440693079B034437
:1026A8000793069B002B05DD1A46029958465BF0F6
:1026B8009DFE0290079B002B05DD21461A465846D1
:1026C8005BF094FE0446119B002B00F076822146B5
:1026D80002986CF0EDFE002880F26F8200230A2237
:1026E800029958465BF0D6FC0D9B7E1E0290002B8B
:1026F80000F05C82002329460A2258465BF0CAFC97
:10270800049B0546002B03DC089B022B00F35E822A
:10271800B8F1000F05DD2946424658465BF066FED3
:102728000546109B002B00F0D082696858465BF084
:102738004FFC0746002840F07F820D4B024640F2CE
:10274800EA2158E5E20706D508F10108D5E9002392
:10275800FDF7BAFE0123641008350BE74FF00208B5
:102768000DE700BF28030700000307000000F03F43
:10277800E08F080020460022AC4B2946FDF7A4FE56
:102788007E1E08F10108049CCDE900014046FDF7D2
:1027980031FEDDE90023FDF797FEA54B0022FDF78A
:1027A800DDFCA1F15073CDE90E010F93002C3BD154
:1027B8000022A04BDDE90001FDF7CEFC02460B46E6
:1027C800CDE90023DDE90E23FEF7E6F9002840F005
:1027D8005781DDE90E2101F10043DDE90001FEF733
:1027E800BDF900283FF4E2AE002425460C9BDDF835
:1027F8000CA0DE434FF00008214658465BF028FC49
:10280800002D00F0A980B8F1000F05D0A84503D02D
:10281800414658465BF01CFC294658465BF018FCBC
:102828009AE03E464C46B1E7834B03EBC40353E9B9
:102838000201039B1C440D9B002B4AD002460B4609
:1028480000207E49FDF76AFFDDE90E23FDF784FCD1
:10285800DDF80CA0CDE90E01DDE90001FEF7DCF999
:102868000546FDF7C7FD024630350B46DDE9000198
:10287800FDF772FC0AF8015B02460B46CDE9000140
:10288800DDE90E01FEF788F9002865D100206C49C2
:10289800DDE90023FDF760FC02460B46DDE90E0189
:1028A800FEF77AF9002840F00D81A24500F0EA8091
:1028B80000225E4BDDE90E01FDF706FE00225B4BB0
:1028C800CDE90E01DDE90001FDF7FEFDCDE90001CE
:1028D800C2E7DDE90E23FDF7F7FDA046DDF80CA001
:1028E800CDE90E01DDE90001FEF796F90546FDF791
:1028F80081FD024630350B46DDE90001FDF72CFC71
:102908000AF8015B02460B46A245CDE900234FF0C9
:10291800000223D1494BDDE90E01FDF71FFC0246F9
:102928000B46DDE90001FEF737F9002840F0CA80C0
:1029380000204249DDE90E23FDF70EFC02460B4656
:10294800DDE90001FEF70AF970B1C24608F1FF3867
:102958001AF8013C302BF8D0374655E0334BFDF7D9
:10296800B3FDCDE90001BDE7DDE90A34CDE9003466
:10297800159B002BFFF628AE0E2F3FF725AE2E4BEA
:1029880003EBC70393ED007B0C9B002B8DED047BC1
:1029980002DAB9F1000F64D0DDF80CA0DDE90045DA
:1029A800DDE9042320462946FDF7B8FEFEF734F991
:1029B8000646FDF71FFDDDE90423FDF785FD024608
:1029C800204606F130040B462946FDF7C5FB0AF8F8
:1029D800014B039C02460B46AAEB0404A14540F0B8
:1029E8008280FDF7BBFB04460D46DDE90423FEF7B4
:1029F800D3F8002865D120462946DDE90423FEF7EF
:102A0800A3F808B1F3075CD4029958465BF020FBA1
:102A1800002301378AF80030129B1F60219B002B8E
:102A28003FF421ACC3F800A01DE400BF000024401F
:102A380000001C4000001440280307000000E03F8D
:102A48000000F03FA24B03EBC70393ED007B0C9B08
:102A5800002B8DED047B9FDAB9F1000F9CDC7FF42D
:102A6800C3AE00229B4BDDE90401FDF72DFDDDE936
:102A78000023FEF787F8044600287FF4B5AE3E46EB
:102A88002546B4E0DDE90A34CDE90034159B002B76
:102A980001DB0E2FD6DD089A012A36DC139A82B3A1
:102AA80003F23343099CDDF81880069A0121584641
:102AB8001A440692079A1A4407925BF07DFB054672
:102AC80086E53E4653469A4613F8012D392A06D123
:102AD800039A9A42F7D13022039901360A701A787C
:102AE80001321A7038E700227B4BFDF7EDFC00221B
:102AF800002304460D46FEF727F800283FF450AFA0
:102B080082E7149BC3F13603CCE709F1FF34099B34
:102B1800A34208DBB9F1000FA3EB04040EDBDDF8D8
:102B280018804B46C1E7099B109AE31A0994DDF80F
:102B3800188000241A444B461092B6E7069BA3EB74
:102B480009080023B1E7029E71E5099A029970E528
:102B5800029672E5089B012B17DC009BABB9019B21
:102B6800C3F313039BB9019B23F00046360D3605CA
:102B780036B1069B012601330693079B0133079361
:102B8800109B002B7FF470AD1096012075E5002690
:102B9800F6E73FF486AD1C33069A1A449844069229
:102BA800079A1A4407927CE50346F4E7049B002B36
:102BB8002BDC089B022B09DC27E0B9F1000F1DDC98
:102BC800089B022B1ADD3E46CDF81090049B002B83
:102BD8007FF40CAE2146052258465BF05BFA0146AD
:102BE800044602986CF064FC00287FF7FFADDDF81E
:102BF8000CA0312301360AF8013BFBE50D9B3E464C
:102C0800CDF81090002B7FF483AD039F21460298E6
:102C18006CF04EF9039B00F13009049A07F8019B08
:102C2800FB1A9A4240F3CB8000230A2202995846A5
:102C38005BF030FA0290E9E72A6905F10C010C30E3
:102C4800023292006BF03CFF0122394658465BF095
:102C5800CDFB039BA846054603F1010ADDE90323E2
:102C680013440793009B03F0010309930AF1FF3310
:102C78002146029804936CF01BF94146069000F136
:102C8800300902986CF014FC2A462146074658463B
:102C98005BF018FCC268014602B358465BF0D8F9ED
:102CA800002F3ADA0122029958465BF09FFB214631
:102CB80002906CF0FDFB002803DC29D119F0010F0C
:102CC80026D0B9F1390F1DD132E02846C1E700BF3F
:102CD8002803070000001440000024400A900298CE
:102CE8006CF0E6FB0A990C9058465BF0B1F90C9A27
:102CF8005ABB089B53B9099B43B9B9F1390F17D08F
:102D0800002F05DD069B03F1310901E0002F2ADAC7
:102D1800DDF810A00AF8019B6EE5089B3B4304D13F
:102D2800009B03F00103002BBCD0B9F1390F36D159
:102D3800049F392307F8013BBA46013F1AF8013CC2
:102D4800392B5AD001333B7056E5002F06DB089B20
:102D58003B4306D1009B03F0010313B9002AA1DC11
:102D6800D6E7002AE1DC079B57460AF8019C534541
:102D78002ED000230A22029958465BF08BF9A84509
:102D880002904FF000034FF00A02414658460BD11B
:102D98005BF080F9804605460AF1010A66E7DDF82E
:102DA80010A009F10109B5E75BF074F929468046DE
:102DB80000230A2258465BF06DF90546ECE7049BB0
:102DC8004FF00008002BCCBF1F460127039B1F4470
:102DD8000122029958465BF009FB214602906CF0EB
:102DE80067FB0028A8DC02D119F0010FA4D1BA466C
:102DF80017F8013D302BFAD0FEE4039BBB429BD170
:102E08003123039A01361370F6E4219B002B7FF4DB
:102E180025AA014BFFF744BA608F080000000000A4
:102E28009FED010B704700BF000000000000F87F15
:102E38000346032929D8DFE801F0020D1823D3F847
:102E48001804C0F3004072B3D3F8183403F0030336
:102E580013707047D3F80C04C0F300401AB3D3F8CA
:102E68000C3403F0010313707047D3F85C04C0F30B
:102E78000040C2B1D3F85C3403F00103137070470B
:102E8800D3F85404C0F30040704710B5064C40F224
:102E9800CD332246054906485CF062FF40F2CD3149
:102EA80020460EF075FE7047F0030700DC2507008A
:102EB80024040700F0B583B000AF5BF076FE00286D
:102EC80047D00146AE4B1B6813F0070F3BD06C464A
:102ED80088B06B4613F1100200F0018310206AB12C
:102EE8008446042801DDA74D5D61BCF1080F00DDB3
:102EF8009961BCF10C0F01DD7921D9610F2840F3EC
:102F0800F1824FF0100C3AB1042139710021797126
:102F1800B971F9717868186100216FF300016FF3D6
:102F280041016FF382016FF3C501012363F3881137
:102F3800CCF30A0C6CF353216FF31F510023904814
:102F480013F056FCA546404080F311884FF003006B
:102F580002DF0DF0E7FC0146002846D0884B1B68CD
:102F680013F0070F3BD06C4688B06B4613F1100284
:102F780000F0BB8210206AB18446042801DD814D2F
:102F88005D61BCF1080F00DD9961BCF10C0F01DD3A
:102F98007C21D9610F2840F3AB824FF0100C3AB175
:102FA8000421397100217971B971F9717868186152
:102FB80000216FF300016FF341016FF382016FF39A
:102FC800C501012363F38811CCF30A0C6CF3532178
:102FD8006FF31F5100236A4813F00AFCA5464040CE
:102FE80080F311884FF0030002DF0CF06DFA014600
:102FF800002846D0624B1B6813F0070F3BD06C4685
:1030080088B06B4613F1100200F0758210206AB187
:103018008446042801DD5B4D5D61BCF1080F00DDCD
:103028009961BCF10C0F01DD7F21D9610F2840F3B4
:1030380065824FF0100C3AB1042139710021797181
:10304800B971F9717868186100216FF300016FF3A5
:1030580041016FF382016FF3C501012363F3881106
:10306800CCF30A0C6CF353216FF31F51002344482F
:1030780013F0BEFBA546404080F311884FF00300D3
:1030880002DF0EF079FD5BF0A4FD0146002846D072
:103098003B4B1B6813F0070F3BD06C4688B06B4660
:1030A80013F1100200F02D8210206AB18446042822
:1030B80001DD344D5D61BCF1080F00DD9961BCF1A3
:1030C8000C0F01DD8421D9610F2840F31D824FF0D8
:1030D800100C3AB10421397100217971B971F97173
:1030E8007868186100216FF300016FF341016FF3F5
:1030F80082016FF3C501012363F38811CCF30A0C35
:103108006CF353216FF31F5100231D4813F070FB1C
:10311800A546404080F311884FF0030002DF00F01D
:1031280071FA014600284CD0154B1B6813F0070FA5
:1031380041D06C4688B06B4613F1100200F0E7816D
:1031480010206AB18446042801DD0E4D5D61BCF192
:10315800080F00DD9961BCF10C0F01DD8721D961F1
:103168000F2840F3D7814FF0100C6AB10421397150
:1031780000217971B971F9717868186104E000BFAC
:10318800141200204404070000216FF300016FF3BC
:1031980041016FF382016FF3C501012363F38811C5
:1031A800CCF30A0C6CF353216FF31F510023B14881
:1031B80013F01EFBA546404080F311884FF0030032
:1031C80002DF0EF0C5FB0146002846D0A94B1B685C
:1031D80013F0070F3BD06C4688B06B4613F1100212
:1031E80000F09B8110206AB18446042801DDA24DBD
:1031F8005D61BCF1080F00DD9961BCF10C0F01DDC8
:103208008A21D9610F2840F38B814FF0100C3AB115
:103218000421397100217971B971F97178681861DF
:1032280000216FF300016FF341016FF382016FF327
:10323800C501012363F38811CCF30A0C6CF3532105
:103248006FF31F5100238B4813F0D2FAA546404074
:1032580080F311884FF0030002DF88480EF060FB0E
:103268000146002846D0834B1B6813F0070F3BD05C
:103278006C4688B06B4613F1100200F054811020A0
:103288006AB18446042801DD7B4D5D61BCF1080FFD
:1032980000DD9961BCF10C0F01DD8D21D9610F288A
:1032A80040F344814FF0100C3AB1042139710021E8
:1032B8007971B971F9717868186100216FF30001AB
:1032C8006FF341016FF382016FF3C501012363F3CB
:1032D8008811CCF30A0C6CF353216FF31F510023B0
:1032E800644813F085FAA546404080F311884FF0F2
:1032F800030002DF614BDB6813F47F6F40F0198134
:1033080006F08EFD0146002846D05A4B1B6813F084
:10331800070F3BD06C4688B06B4613F1100200F0E3
:103328005A8110206AB18446042801DD524D5D613E
:10333800BCF1080F00DD9961BCF10C0F01DD97218C
:10334800D9610F2840F34A814FF0100C3AB104219B
:10335800397100217971B971F971786818610021A2
:103368006FF300016FF341016FF382016FF3C50141
:10337800012363F38811CCF30A0C6CF353216FF328
:103388001F5100233B4813F033FAA546404080F311
:1033980011884FF0030002DF5BF03BFC0146002878
:1033A80046D0344B1B6813F0070F3BD06C4688B0EF
:1033B8006B4613F1100200F0148110206AB18446A4
:1033C800042801DD2C4D5D61BCF1080F00DD996119
:1033D800BCF10C0F01DD9A21D9610F2840F304815B
:1033E8004FF0100C3AB10421397100217971B9718B
:1033F800F9717868186100216FF300016FF34101DA
:103408006FF382016FF3C501012363F38811CCF3D5
:103418000A0C6CF353216FF31F510023154813F066
:10342800E7F9A546404080F311884FF0030002DF1A
:1034380005F0E4F9014600284DD00E4B1B6813F047
:10344800070F42D06C4688B06B4613F1100200F0AB
:10345800CE801020A2B18446042801DD064D5D61AE
:10346800BCF1080F00DD9961BCF10C0F08DD9D214E
:10347800D96105E01412002044040700F843002035
:103488000F2840F3B7804FF0100C3AB1042139717E
:1034980000217971B971F9717868186100216FF3A9
:1034A80000016FF341016FF382016FF3C50101233E
:1034B80063F38811CCF30A0C6CF353216FF31F519B
:1034C80000234E4813F094F9A546404080F3118834
:1034D8004FF0030002DF00200C37BD46F0BD6FF04F
:1034E8000040FCE46FF01B0C0DE56FF0004042E576
:1034F8006FF01B0C53E56FF0004088E56FF01B0C74
:1035080099E56FF00040D0E56FF01B0CE1E56FF036
:10351800004016E66FF01B0C27E66FF0004062E6ED
:103528006FF01B0C73E66FF00040A9E66FF01B0C00
:10353800BAE60DF005FC10F1130F3FF4E1AE0028D8
:103548003FF4DEAE2D4B1B6813F0070F36D06D46E7
:1035580088B06B4613F1100237D010215AB10C46CF
:10356800042901DD264E5E61082C00DD98610C2CD3
:1035780001DD9220D8610F292ADD10243AB10421F7
:10358800397100217971B971F97178681861002170
:103598006FF300016FF341016FF382016FF3C5010F
:1035A800012363F38811C4F30A0464F353216FF30E
:1035B8001F510023114813F01BF9AD46404080F31A
:1035C80011884FF0030002DF9AE66FF00041C5E76B
:1035D8006FF01B04D2E76FF00040A3E66FF01B0CFE
:1035E800B4E66FF00040E9E66FF01B0CFAE66FF006
:1035F80000402FE76FF01B0C47E700BF14120020B4
:103608004404070090B597B000AF8B4B1B6803F0DC
:103618000703022B71D96C4600233B7102237B718F
:103628000122BA710322FA713B7204237B728CB0B7
:10363800EC461CF110022DD04FF01A0E2AB1BEF143
:10364800040F02DD7D4BCCF8143000233B710223BC
:103658007B712AB1BEF1080F02DD794BCCF8183026
:103668000123BB710323FB712AB1BEF10C0F02DDEC
:10367800744BCCF81C3002233B7204237B72B2B12A
:10368800BEF1100F02DD704BCCF820300CF1240392
:1036980000210AE06FF0004ED0E701F158003844ED
:1036A80010F8540C03F8010B01310529F5D9BEF1C6
:1036B800190F40DD1A234AB10521397000217970AC
:1036C800B9700321F9703868CCF8100000216FF345
:1036D80000016FF341016FF382016FF3C50103200D
:1036E80060F38811C3F30A0363F353216FF31F5187
:1036F8000023514813F07CF8A5464F4B1B6803F094
:103708000703022B1AD807F10F000EF027FAFB7BEC
:10371800ABB3012B40F081804C4812F051FE0446B7
:1037280028B9454B1B6803F00703022B54D82046E1
:103738005C37BD4690BD6FF01B03BCE7444B7B6212
:1037480002233B7100237B71BB71FB717A683A627B
:10375800194663F3000163F3410163F3820163F3E4
:10376800C501032262F38811082262F3532163F32F
:103778001F5107F12002304813F03AF8C3E73548E3
:1037880012F01EFE04460028D1D12B4B1B6803F013
:103798000703022BCBD9304B7B6502233B710023F7
:1037A8007B71BB71FB717A683A65194663F3000156
:1037B80063F3410163F3820163F3C501032262F3FA
:1037C8008811082262F3532163F31F5107F1500255
:1037D800194813F00DF8AAE7204BFB6302233B714D
:1037E80000237B71BB71FB717A68BA63194663F376
:1037F800000163F3410163F3820163F3C50103220E
:1038080062F38811082262F3532163F31F5107F111
:103818003802094812F0ECFF89E7114C3823224698
:10382800104911485CF09CFA10485CF099FA38216C
:1038380020460EF0ADF900BFE41100207004070027
:103848008C050700BC040700B4050700D80507006D
:10385800C4040700DC050700E004070000050700B2
:1038680020050700DC250700240407007805070069
:10387800034B01221A70DA709A705A70704700BFB1
:103888003C4400202DE9F04FADF2144D02AF002367
:10389800C7F8FC33984621E16FF000405BE00F2841
:1038A8006CDD10213AB10420387500207875B875A0
:1038B800F875786918616FF300066FF341066FF3C6
:1038C80082066FF3C506012363F38816C1F30A0362
:1038D80063F353266FF31F5600233146804812F0D6
:1038E80087FFAD46404080F311884FF0030002DFA8
:1038F80007F5816303EB84057A4B1A6855F8341C85
:1039080007F5AA7303EB84106BF0DAF855F8341C4A
:10391800754836F0E7FC0134092C32DC4FF0FF32F1
:103928004FF0FF33CDE900236E4A07F5757303EBBB
:1039380084016D4836F0A2FC01460028D8D0684BB7
:103948001B6813F0070FCDD06D4688B002AB13F19A
:103958001002A1D01020002AA1D08446042803DD3B
:10396800DFF898E1C3F814E0BCF1080F00DD9961B5
:10397800BCF10C0F93DD8521D96190E76FF01B0135
:1039880090E75A4B1B7A002B00F09D80584B1B6820
:10399800002B40F0B58007F57F73564A4FF420712D
:1039A80007F5AA7002F04CFA0446002800F08B8054
:1039B8004B4B1B6813F0070F3FD06D4600233B7538
:1039C80002237B7588B002A911F1100200F0518121
:1039D8004FF00E0C22B1BCF1040F01DD464B4B61D8
:1039E80000233B7402237B74002A40F04581BCF11C
:1039F8000D0F40F354810E2342B103203875002087
:103A08007875B8750120F875786908616FF3000951
:103A18006FF341096FF382096FF3C509012161F35F
:103A28008819C3F30A0363F353296FF31F5900235B
:103A380049462B4812F0DCFEAD46294B1B6813F0B3
:103A4800070F3AD06D4688B002AB13F1100200F0B0
:103A5800298110216AB10846042903DDDFF89CC0DA
:103A6800C3F814C0082800DD9C610C2801DD9F20E4
:103A7800D8610F2940F3198110213AB10420387513
:103A880000207875B875F875786918616FF3000AC1
:103A98006FF3410A6FF3820A6FF3C50A012363F3D8
:103AA800881AC1F30A0363F3532A6FF31F5A0023DA
:103AB80051460B4812F09CFEAD46404080F31188F9
:103AC8004FF0030002DFB8F57A7F00F0F18008F1CB
:103AD8000108064B1B7A002B40F0418100241BE7AC
:103AE8003811002014440020E80100203C44002044
:103AF800184400200C440020D01C07004404070090
:103B08009B4A00929B4A4FF4A07107F1140035F0CC
:103B180057FF0346002848D0974A126812F0070F4B
:103B28003DD06C4688B002A911F1100200F09580D2
:103B380010206AB10546042803DDDFF848C2C1F841
:103B480014C0082D00DD8B610C2D01DD9423CB61A1
:103B58000F2840F3858010233AB1042038740020E0
:103B68007874B874F8743869086179686FF300017B
:103B78006FF341016FF382016FF3C501084601211C
:103B880061F388100146C3F30A0363F353216FF30B
:103B98001F5179600023784812F02AFEA54640405C
:103BA80080F311884FF0030002DF07F10C03009344
:103BB80007F5AA7310224FF4A07107F1140066F0FC
:103BC800CDFA034600283FF4E6AE6B4A126812F0BD
:103BD800070F3BD06C4688B002A911F1100242D001
:103BE80010206AB10546042803DDDFF898C1C1F842
:103BF80014C0082D00DD8B610C2D01DD9923CB61EC
:103C08000F2833DD10233AB104203874002078746B
:103C1800B874F8743869086139686FF300016FF394
:103C280041016FF382016FF3C5010846012161F379
:103C380088100146C3F30A0363F353216FF31F513E
:103C4800396000234C4812F0D3FDA546404080F36C
:103C580011884FF0030002DF9DE66FF0004068E72F
:103C68006FF01B0378E76FF00040BAE76FF01B03B3
:103C7800C9E76FF0004CADE6BCF1080F01DD3F4B22
:103C88008B6101F11C03002006E007F1100E1EF8FD
:103C980000E003F801EB01300128F6D9A7E66FF040
:103CA8001B03A9E66FF00041D4E66FF01B01E4E6C0
:103CB80007F5806207F20441314836F03BFB804645
:103CC80000283FF406AF2C4B1B6813F0070F37D0C2
:103CD8006C4688B002AB13F110023AD0102162B1E1
:103CE8000846042901DD274D5D61082801DDC3F878
:103CF80018800C2801DDA620D8610F292CDD1021A1
:103D08003AB10420387500207875B875F875786967
:103D180018616FF3000B6FF3410B6FF3820B6FF3B6
:103D2800C50B012363F3881BC1F30A0161F3532B0D
:103D38006FF31F5B002359460F4812F059FDA54643
:103D4800404080F311884FF0030002DF4FF0000875
:103D5800BFE66FF00041C2E76FF01B01D0E70A4BE6
:103D68005A7CD7F8FC13094B186804F015FDB5E622
:103D7800104400201C44002038110020E0050700F2
:103D8800E8010020440407003C4400200C440020C3
:103D9800F0B58BB008AFFFF76BFD8F4B93F864302D
:103DA800002B47D08D4B93F86430002B00F0E8804F
:103DB8008B4B03F1100292E803008DE803000FCB50
:103DC80002F0E0FB0446002800F00182854B1B68E6
:103DD80013F0070F00F0B6816D4600233B710223F4
:103DE8007B7188B0AC4615F1100200F082810E207C
:103DF80022B1042802DD7C4BCCF8143000233B7040
:103E080002237B70002A00F07781082802DD774BB7
:103E1800CCF818300CF11C030021012900F26C8148
:103E280001F1080606EB070E1EF808EC03F801EB93
:103E38000131F2E7684836F057FB05460028B1D053
:103E4800684B1B6813F0070F4DD06E4600233B717B
:103E580002237B7188B0344616F1100212D00E206E
:103E68001AB1042801DD604B636100233B70022313
:103E78007B70A2B1082801DD5D4BA36104F11C032E
:103E880000210AE06FF00040EAE701F1080CBC44A9
:103E98001CF808CC03F801CB01310129F5D90D280C
:103EA80065DD0E2342B10321397100217971B971A1
:103EB8000121F9717868206100216FF300016FF327
:103EC80041016FF382016FF3C501012060F388118E
:103ED800C3F30A0363F353216FF31F5100234148CF
:103EE80012F086FCB5463F4B1B6813F0070F37D01E
:103EF8006E4688B0334616F110023BD0102162B1ED
:103F08000846042901DD3B4C5C61082800DD9D6101
:103F18000C2802DD40F24F10D8610F292DDD102446
:103F28003AB10421397100217971B971F971786850
:103F3800186100216FF300016FF341016FF38201F3
:103F48006FF3C501012363F38811C4F30A0464F312
:103F580053216FF31F510023224812F049FCB54644
:103F6800404080F311884FF0030002DF1AE76FF03A
:103F78001B0397E76FF00041C1E76FF01B04CFE721
:103F8800164836F0B1FA054600283FF411AF154B34
:103F98001B6813F0070F5FD06E4600233B710223A6
:103FA8007B7188B0344616F1100212D00E201AB177
:103FB800042801DD0C4B636100233B7002237B70F6
:103FC80032B3082801DD0C4BA36104F11C03002166
:103FD8001CE06FF00040EAE750020020E8010020F2
:103FE8003C44002038110020D01C07002806070098
:103FF800F0050700440407000C06070001F1080C4F
:10400800BC441CF808CC03F801CB01310129F5D9CF
:104018000D2865DD0E2342B1032139710021797124
:10402800B9710121F9717868206100216FF30001ED
:104038006FF341016FF382016FF3C501012060F353
:104048008811C3F30A0363F353216FF31F5100234D
:10405800B44812F0CDFBB546B24B1B6813F0070FFE
:1040680037D06E4688B0334616F110023BD0102187
:1040780062B10846042901DDAB4C5C61082800DD0B
:104088009D610C2802DD4FF4AA70D8610F292DDD3F
:1040980010243AB10421397100217971B971F9718B
:1040A8007868186100216FF300016FF341016FF325
:1040B80082016FF3C501012363F38811C4F30A0475
:1040C80064F353216FF31F510023964812F090FBBD
:1040D800B546404080F311884FF0030002DF67E6E1
:1040E8006FF01B0397E76FF00041C1E76FF01B0407
:1040F800CFE76FF000407BE60D2840F30A810E23DE
:104108004AB10321397100217971B9710121F9711D
:104118007868CCF8100000216FF300016FF34101BB
:104128006FF382016FF3C501012060F38811C3F3B7
:104138000A0363F353216FF31F510023794812F0E8
:1041480057FBAD46774B1B6813F0070F39D06D4608
:1041580088B02B4615F1100200F0DE80102162B104
:104168000846042901DD704E5E61082800DD9C6167
:104178000C2802DD4FF4AC70D8610F2940F3CF80D2
:1041880010243AB10421397100217971B971F9719A
:104198007868186100216FF300016FF341016FF334
:1041A80082016FF3C501012363F38811C4F30A0484
:1041B80064F353216FF31F5100235A4812F018FB80
:1041C800AD46404080F311884FF0030002DF574BA3
:1041D80001221A751B7A23B1554B1B68002B00F07E
:1041E800AB800BF003FE0146002844D04D4B1B6802
:1041F80013F0070F39D06D4688B02B4615F1100221
:1042080000F0FF80102062B10446042801DD464E0C
:104218005E61082C00DD99610C2C02DD4FF4B5714C
:10422800D9610F2840F3F08010243AB10421397184
:1042380000217971B971F9717868186100216FF3FB
:1042480000016FF341016FF382016FF3C501012390
:1042580063F38811C4F30A0464F353216FF31F5105
:104268000023304812F0C4FAAD46404080F311886C
:104278004FF0030002DF2F4801F04CFD01460028F3
:1042880044D0284B1B6813F0070F39D06D4688B00F
:104298002B4615F1100200F0BA80102062B10446D6
:1042A800042801DD204E5E61082C00DD99610C2C8C
:1042B80002DD40F26D11D9610F2840F3AB80102464
:1042C8003AB10421397100217971B971F9717868AD
:1042D800186100216FF300016FF341016FF3820150
:1042E8006FF3C501012363F38811C4F30A0464F36F
:1042F80053216FF31F5100230A4812F079FAAD4693
:10430800404080F311884FF0030002DF0C37BD46B0
:10431800F0BD6FF01B03F3E66FF000411FE76FF08D
:104328001B042EE738110020440407003C440020F9
:1043380054440020E801002000220023CDE9062390
:104348000023049303220392029301930093334BB7
:1043580041F64C52324933483DF06EFD324B1860FD
:1043680032493DF035FB014600283FF43AAF304B67
:104378001B6813F0070F37D06D4688B02B4615F130
:10438800100238D0102062B10446042801DD294EFD
:104398005E61082C00DD99610C2C02DD4FF4B171CF
:1043A800D9610F282ADD10243AB10421397100217E
:1043B8007971B971F9717868186100216FF300019A
:1043C8006FF341016FF382016FF3C501012363F3BA
:1043D8008811C4F30A0363F353216FF31F510023B9
:1043E800134812F005FAAD46404080F311884FF0AB
:1043F800030002DFF5E66FF00040C4E76FF01B042E
:10440800D2E76FF00040FEE66FF01B040DE76FF097
:10441800004043E76FF01B0452E700BF8D380000EF
:1044280098A80020101A00205444002040060700D5
:10443800381100204404070010B50446FFF7A8FC13
:10444800034A082120465CF07DFE002010BD00BF15
:1044580048060700F0B58BB002AFAA4B1B7D2BBBFB
:10446800A94B1B6813F0060F00F08981A74BFB616D
:1044780002223A7100237B71BB71FB717968B961C3
:10448800194663F3000163F3410163F3820163F3A7
:10449800C50162F38811082262F3532163F31F51A7
:1044A80007F11802984812F0A3F968E10BF0CCFC68
:1044B8000146002848D0944B1B6813F0070F3DD0E5
:1044C8006D4688B002AB13F1100212D0102062B111
:1044D8000446042801DD8E4E5E61082C00DD9961DA
:1044E8000C2C09DD4FF4C071D9610F284FDD102461
:1044F80004E06FF00040EAE76FF01B043AB10421D2
:10450800397100217971B971F971786818610021E0
:104518006FF300016FF341016FF382016FF3C5017F
:10452800012363F38811C4F30A0363F353216FF380
:104538001F510023744812F05BF9AD46404080F3E8
:1045480011884FF0030002DF01F046FC0146002805
:104558004BD06D4B1B6813F0070F40D06D4688B0E9
:1045680002AB13F1100215D0102062B104460428E2
:1045780001DD674E5E61082C00DD99610C2C0CDDB5
:1045880040F28311D9610F2862DD102407E06FF033
:104598001B04B3E76FF00040E7E76FF01B043AB184
:1045A8000421397100217971B971F971786818613C
:1045B80000216FF300016FF341016FF382016FF384
:1045C800C501012363F38811C4F30A0363F353217C
:1045D8006FF31F5100234C4812F00AF9AD464040D2
:1045E80080F311884FF0030002DF464B03F11002FD
:1045F80092E803008DE803000FCB01F0BFFE0446EC
:10460800002800F0B380404B1B6813F0070F55D00B
:104618006D4600233B7102237B7188B00DF1080CB5
:104628001CF1100217D00E2022B1042802DD394BEC
:10463800CCF8143000233B7002237B70CAB10828E1
:1046480002DD354BCCF818300CF11C0300210EE0CC
:104658006FF01B04A3E76FF00040E5E701F12006C7
:1046680006EB070E1EF820EC03F801EB01310129D7
:10467800F4D90D2840DD0E234AB1032139710021F8
:104688007971B9710121F9717868CCF810000021AD
:104698006FF300016FF341016FF382016FF3C501FE
:1046A800012060F38811C3F30A0363F353216FF306
:1046B8001F510023144812F09BF8AD46124B1B689B
:1046C80013F0070F4CD06D4688B002AB13F11002FF
:1046D80015D0102162B10846042901DD0C4E5E6137
:1046E800082800DD9C610C2818DD40F28710D8618D
:1046F8000F2947DD102413E06FF01B03BCE76FF0B0
:104708000041E7E73C44002038110020600607001C
:1047180044040700D01C07007C0607006FF01B0448
:104728003AB10421397100217971B971F971786848
:10473800186100216FF300016FF341016FF38201EB
:104748006FF3C501012363F38811C4F30A0363F30C
:1047580053216FF31F5100230C4812F049F8AD465E
:10476800404080F311884FF0030002DF084B00221D
:104778001A75084835F016FE074835F013FE243739
:10478800BD46F0BD6FF01B04CAE700BF381100201A
:104798003C440020E80100205002002010B50446E7
:1047A800FFF758FE034A082120465CF0CBFC0020A6
:1047B80010BD00BF94060700F0B583B000AF01F04C
:1047C80023FB002840D00446434B1B6813F0070F17
:1047D8003ED06D4688B06B4613F110022ED00C21E6
:1047E8003AB10846042901DD3C4E5E61082800DD27
:1047F8009C610B2925DD4FF00C0C3AB1032139716E
:1048080000217971B971F9717868186100216FF325
:1048180000016FF341016FF382016FF3C5010123BA
:1048280063F38811CCF30A0363F353216FF31F5129
:104838000023294811F0DCFFAD4609E06FF0004184
:10484800CEE76FF01B0CD8E70BF00EFB044618B947
:1048580020460C37BD46F0BD1F4B1B6813F0070FF1
:10486800F6D06E4688B06B4613F110022DD00C219D
:104878003AB10846042901DD194D5D61082800DDBB
:104888009C610B2924DD0C253AB1032139710021E3
:104898007971B971F9717868186100216FF30001B5
:1048A8006FF341016FF382016FF3C501012363F3D5
:1048B8008811C5F30A0363F353216FF31F510023D3
:1048C800054811F095FFB546C2E76FF00041CFE704
:1048D8006FF01B05D8E700BF38110020AC060700B1
:1048E800D40607000C4B93F8803033B90A4B0122E9
:1048F80083F88020036000207047074B93F88130CD
:104908003BB9054B012283F8812040330360002026
:1049180070476FF00B007047A04F0020074B98427C
:1049280003D0074B984204D07047002283F88020B8
:104938007047403B002283F88120F5E7A04F002014
:10494800E04F0020034B002283F8802083F8812069
:10495800704700BFA04F002008B50021034B197015
:104968004FF4A07202486AF0E5F808BD63A8002079
:104978002850002008B502483EF0CCFB08BD00BF17
:10498800B802002008B10068704710B5074C40F223
:1049980045232246064907485BF0E2F906485BF0E2
:1049A800DFF940F2452120460DF0F2F8B407070080
:1049B800E407070024040700F807070000B589B0DA
:1049C800FFF7E0FF0268184B5B782BB1174BC3F871
:1049D800F42F09B05DF804FB154B1B6813F0060FA4
:1049E800F7D0144B079302228DF8042000238DF88A
:1049F80005308DF806308DF8073001990691194673
:104A080063F3000163F3410163F3820163F3C501BA
:104A180062F38811082262F3532163F31F5106AA37
:104A2800034811F0E5FED4E76851002068610020D2
:104A3800301100200C08070090B589B000AF474B33
:104A480093F8FC3F83422CD0444B0022A3F8FE2F5E
:104A580083F8FC0F424B1B6803F00703022B77D93E
:104A6800404B53F820106C463A7102237B7188B092
:104A7800EC461CF1100239D00E2022B1042802DDC8
:104A8800394BCCF8143000233B7002237B70002A8A
:104A980039D0082801DDCCF818100CF11C030021CE
:104AA8002FE02F4B1B6813F0060F51D02F4BFB61E3
:104AB80002223A7100237B71BB71FB717968B9617D
:104AC800194663F3000163F3410163F3820163F361
:104AD800C50162F38811082262F3532163F31F5161
:104AE80007F118021E4811F083FE31E06FF0004014
:104AF800C3E701F1200EBE441EF820EC03F801EBD9
:104B080001310129F5D90D2825DD0E234AB10321EC
:104B1800397100217971B9710121F9717868CCF87E
:104B2800100000216FF300016FF341016FF3820160
:104B38006FF3C501032060F38811C3F30A0363F31D
:104B480053216FF31F510023054811F051FEA5466C
:104B58002437BD4690BD6FF01B03D7E7686100207E
:104B680030110020800F0700740807003C08070078
:104B780010B5574B93F8FC3F032B07D8DFE803F039
:104B8800020D4170524BD3F8F43F03B910BD514A9E
:104B980013600120FFF750FFF8E74D4AB2F8FE3FD7
:104BA80001339BB2A2F8FE3F632BEFD9A2F58052E6
:104BB80002F500510B6802F58052D2F8F42F9B1AC7
:104BC80003F5C333A033444A02FB03F3434A82FB91
:104BD8000302DB17C3EBA21303F51B40AE3048609A
:104BE80003F6CC3341F29872934206D880B25AF059
:104BF8002AF80220FFF720FFC8E70020FFF71CFF74
:104C0800C4E7334AB2F8FE3F01339BB2A2F8FE3F35
:104C1800632BBBD9D2F8F44F241A314BA3FB0423DE
:104C28009B094FF47A7202FB1344B4F5FA7F01DD55
:104C3800A4F57A74284B04FB03F3284A82FB031279
:104C4800DB17C3EBA213234A5068184480B259F00B
:104C5800FAFF0F341E2C99D80320FFF7EDFE95E7D5
:104C68001B4AB2F8FE3F01339BB2A2F8FE3F632B0A
:104C78008CD9D2F8F43F1B1A194AA2FB03129209E5
:104C88004FF47A7101FB1233B3F5FA7F01DDA3F516
:104C98007A7303EBD3735C100F4B04FB03F30F4AD7
:104CA80082FB0312DB17C3EBA2130A4A50681844AD
:104CB80080B259F0C8FF2034402C04D8044B00229D
:104CC800A3F8FE2F62E70020FFF7B6FE5EE700BFFD
:104CD800686100206871002018FCFFFF019D7F318A
:104CE800D34D6210604B1B7B834200F0BB80F0B554
:104CF80083B000AF04465C4B0022DA8118735B4B2B
:104D08001B6803F00703022B52D9594B53F82010A4
:104D18006D463A7102237B7188B0EC461CF1100293
:104D280013D00E2022B1042802DD524BCCF81430E7
:104D380000233B7002237B70AAB1082801DDCCF860
:104D480018100CF11C0300210BE06FF00040E9E79C
:104D580001F1080606EB070E1EF808EC03F801EB54
:104D680001310129F4D90D286FDD0E234AB1032141
:104D7800397100217971B9710121F9717868CCF81C
:104D8800100000216FF300016FF341016FF38201FE
:104D98006FF3C501032060F38811C3F30A0363F3BB
:104DA80053216FF31F510023304811F021FDAD4608
:104DB800032C4DD003205AF04BF8002842D02B4B3F
:104DC8001B6813F0070F37D06D4688B06B4613F198
:104DD800100241D0102162B10C46042901DD264E93
:104DE8005E61082C00DD98610C2C02DD4FF4977091
:104DF800D8610F2933DD10243AB10421397100211B
:104E08007971B971F9717868186100216FF300013F
:104E18006FF341016FF382016FF3C501012363F35F
:104E28008811C4F30A0363F353216FF31F5100235E
:104E38000E4811F0DDFCAD46404080F311884FF07C
:104E4800030002DF0C37BD46F0BD6FF01B038DE792
:104E580003200BF08BFCB0E76FF00041BBE76FF06D
:104E68001B04C9E7704700BF68710020301100209B
:104E7800700F070088080700440407002DE9F04375
:104E880083B000AF9E4B93F8FC3F032B11D104462F
:104E98000D4692B99B4B5A69291B11441B7B012B68
:104EA80016D0022B00F090805BB10C37BD46BDE8F0
:104EB800F0830020FFF716FFF7E70220FFF712FF45
:104EC800E8E7904B00221A610120FFF70BFFECE79F
:104ED8008C4AD389581CD081092B64D9894B1E6907
:104EE800894B83FB0623F517C5EBA30505F2F312DF
:104EF80040F2E6339A4263D90220FFF7F3FE002D11
:104F0800D3D016F1090F6ADB05F5FA757F4B83FBE1
:104F180005234FEAE578C8EBA3184EF647639D4290
:104F280066DD7B4B1B6813F0060F00F0AA806E4607
:104F380088B06B4613F1100254D00C214AB10846D0
:104F4800042903DDDFF8D0C1C3F814C0082800DD48
:104F58009D610B2949DD0C253AB1032139710021E6
:104F68007971B971F9717868186100216FF30001DE
:104F78006FF341016FF382016FF3C501022363F3FD
:104F88008811C5F30A0565F353216FF31F510023F8
:104F98005F4811F02DFCB5464FF03C08B8F1000F02
:104FA80063DD002675E0A2F5005303F500500269A1
:104FB80003F58053D3F8F83FC91A0A44026174E72D
:104FC8000320FFF78FFE9AE74E4AD389591CD181F7
:104FD8000C2B7FF66AAF0020FFF784FE65E7A5F586
:104FE800FA7593E76FF00041A8E76FF01B05B3E788
:104FF800484B9D42D2DA464B1B6813F0060F6BD024
:105008006E4688B06B4613F1100234D00C213AB1C9
:105018000846042901DD404C5C61082800DD9D61DB
:105028000B292BDD0C243AB1032139710021797148
:10503800B971F9717868186100216FF300016FF395
:1050480041016FF382016FF3C501022363F38811F5
:10505800C4F30A0363F353216FF31F5100232C4851
:1050680011F0C6FBB5466FF03B08B8F1000FBFF66C
:105078001CAF002238E06FF00041C8E76FF01B0456
:10508800D1E74FF03C0889E700231D4AA2F80C3EFF
:1050980001364645BFF609AF204D05F58059B9F8E8
:1050A8000C0E4001043005EB400040220021043082
:1050B80069F040FDA8EB0602B9F80C3E4FF47A718E
:1050C80001FB124203F2827105EB8105AA60762B7F
:1050D800DAD801339BB2D8E76FF03B08C5E77723EE
:1050E8000749A1F80C3E013A42457FF7DEAE044B72
:1050F800B3F80C3E002BF2D0013B9BB2F0E700BFA7
:10510800686100206871002067666666D34D62108A
:1051180030110020B911FFFF9C08070068510020DA
:1051280010B5144BB3F80E3E03B3013B9BB21248C3
:1051380000F58052A2F80E3E5A01043200EB4200FC
:105148000430ABB1013B9BB20B4A02F58051A1F888
:105158000E3E5B01043302EB4302141D002109F0EB
:1051680017FC0021204609F0CFFB10BD7723DEE7AE
:105178007723E9E76861002068510020F0B58DB019
:1051880002AF0446584B1B68584A0092584A2021DF
:1051980007F1080034F014FC002847D00146554BAD
:1051A8001B6813F0070F3BD06D4688B002AB13F1B4
:1051B800100200F08D80102072B18446042801DDB1
:1051C8004D4E5E61BCF1080F00DD9961BCF10C0F1A
:1051D80002DD4FF4F371D9610F287CDD4FF0100C1C
:1051E8003AB10421397100217971B971F97178687E
:1051F800186100216FF300016FF341016FF3820121
:105208006FF3C501012363F38811CCF30A0C6CF327
:1052180053216FF31F510023364811F0E9FAAD46C8
:10522800404080F311884FF0030002DF032300930E
:10523800202307F108024021204634F027FC0146CC
:10524800002842D02B4B1B6813F0070F37D06D4650
:1052580088B002AB13F1100240D0102062B10446AE
:10526800042801DD244E5E61082C00DD99610C2CB8
:1052780002DD4FF4F571D9610F2832DD10243AB1FF
:105288000421397100217971B971F971786818614F
:1052980000216FF300016FF341016FF382016FF397
:1052A800C501012363F38811C4F30A0464F353218D
:1052B8006FF31F5100230F4811F09AFAAD46404092
:1052C80080F311884FF0030002DF2C37BD46F0BD94
:1052D8006FF0004070E76FF01B0C81E76FF0004043
:1052E800BCE76FF01B04CAE724500020984F002049
:1052F800285000203011002044040700F0B583B086
:1053080000AF044615461046FFF708FB9E4B03F511
:105318008052B2F80ECE0CF2827103EB81039968C9
:10532800611AC2F8F81F002D61D0BCF1760F02D8BF
:105338000CF1010500E00025944BB3F80C3EAB429C
:1053480068D0924BA3F80E5E914B1B78002B41D08E
:105358008F4B00221A708F4B1B6813F0060F39D041
:105368008A4BD3F8F0CF6E4688B06B4613F1100223
:105378004AD00C2152B10846042903DDDFF828E29F
:10538800C3F814E0082801DDC3F818C00B293EDD76
:105398004FF00C0C3AB10321397100217971B971C0
:1053A800F9717868186100216FF300016FF341010A
:1053B8006FF382016FF3C501022363F38811CCF305
:1053C8000A0363F353216FF31F510023714811F04F
:1053D8000FFAB5466B0104336B4A02EB43030433FF
:1053E8006D4A13606D4B1B78002B40F0C380002181
:1053F800694B186809F088FA694B1B7A002B40F052
:10540800BE800C37BD46F0BD6FF00041B2E76FF0CB
:105418001B0CBFE703F0BAF900284DD15C4B012201
:105428001A705A4BD3F8F01F1144C3F8F01F5D4BA4
:10543800A3FB01231B0B41F2883202FB1313002B41
:105448003AD1544B1B6813F0060F35D06D4688B01F
:105458006B4613F1100200F081800C204AB1064619
:10546800042803DDDFF844C1C3F814C0082E00DDAA
:1054780099610B2875DD0C263AB103213971002199
:105488007971B971F9717868186100216FF30001B9
:105498006FF341016FF382016FF3C501022363F3D8
:1054A8008811C6F30A0363F353216FF31F510023D6
:1054B800384811F09DF9AD463748FFF713FA014611
:1054C800002844D0334B1B6813F0070F39D06D46C2
:1054D80088B06B4613F1100246D0102072B1064610
:1054E800042803DDDFF8C8C0C3F814C0082E00DDA7
:1054F80099610C2E02DD40F26121D9610F2836DD59
:1055080010263AB10421397100217971B971F97104
:105518007868186100216FF300016FF341016FF3A0
:1055280082016FF3C501012363F38811C6F30A03EF
:1055380063F353216FF31F510023164811F058F9F4
:10554800AD46404080F311884FF0030002DF40224F
:105558000021114B186869F0EDFA43E76FF000403D
:105568007CE76FF01B0687E76FF00040B6E76FF047
:105578001B06C6E7084B1868FFF700FE37E720460A
:10558800FFF7F6FA3DE700BF685100206861002088
:1055980062A80020301100209C4F002063A8002042
:1055A800687100205917B7D1D8080700FC08070010
:1055B8004404070038B505460024064B1C762046EF
:1055C800FFF790FB044A082128465BF0BBFD204604
:1055D80038BD00BF687100202409070008B5084BD2
:1055E8001B7A43B1064B01221A76064A08215BF062
:1055F800A9FD002008BD044A08215BF0A3FDF8E7D7
:1056080068710020480907006C09070010B50446B6
:10561800094B1B7E2BB1094A08215BF093FD002042
:1056280010BD0020044B1872FFF706FA044A08213F
:1056380020465BF087FDF2E7687100209C090700AF
:10564800D009070008B5044B01221A72034A082141
:105658005BF078FD002008BD68710020F80907009C
:1056680030B583B0144B1B781BBB02460C464FF475
:105678007A531249124834F0A5FA054618B92CB9DC
:105688000D4B01221A70284603B030BDE0034FF4D9
:105698007A72002300F2E7300021FBF7C7F90246CF
:1056A8000B4600200021CDE9000106483FF006FF27
:1056B800E6E76FF00F05E6E763A800202450002016
:1056C800285000206813002008B5034869F0FDF849
:1056D80002483DF01FFD08BD68130020B8020020F5
:1056E80010B50446FFF7F0FF034A082120465BF097
:1056F80029FD002010BD00BF200A07002DE9F04356
:105708002DED028B85B00746042957D116465068FF
:105718000378424AD35C13F0040F56D0B3681B7861
:105728003E4AD35C13F0040F57D00A22002158F0E8
:105738000BF804461FFA80F80A220021B06858F0D6
:1057480003F805461FFA80F90021F06857F0A8FE13
:10575800B0EE408AB5EEC00AF1EE10FA45D9F7EE80
:10576800007AB4EEE70AF1EE10FA3EDCA4B2AEB26B
:10577800009623462A4A082138465BF0E3FCB0EE3F
:10578800480A49464046FFF76BFF054610F1100FDF
:1057980033D0002D3BD118EE100AFAF73DFECDE9C3
:1057A8000201009623461F4A082138465BF0CAFCCE
:1057B800284605B0BDEC028BBDE8F0831A4A0121EA
:1057C8005BF0C0FC6FF01505F2E7184A0121384676
:1057D8005BF0B8FC6FF01505EAE7154A0121384679
:1057E8005BF0B0FC6FF01505E2E7124A012138467C
:1057F8005BF0A8FC6FF01505DAE7FFF765FFB0EE80
:10580800480A49464046FFF72BFF0546C1E72B46A5
:10581800094A082138465BF095FCBCE71B8E080056
:10582800DC0A0700180B07002C0A0700780A070093
:10583800940A0700B00A0700FC0A0700A0F57A627C
:105848004DF6C0239A4203D8274B58610020704771
:10585800264B1B6813F0060F42D0B0B582B000AFDC
:105868006C4688B06B4613F1100233D00C2142B15C
:105878008C46042901DD1E4D5D61BCF1080F00DD79
:1058880098610B2929DD4FF00C0C3AB103213971CD
:1058980000217971B971F9717868186100216FF385
:1058A80000016FF341016FF382016FF3C501022319
:1058B80063F38811CCF30A0363F353216FF31F5189
:1058C80000230A4810F094FFA5466FF0150008372A
:1058D800BD46B0BD6FF00041C9E76FF01B0CD4E7BF
:1058E8006FF01500704700BF68710020301100206C
:1058F8004C0B07002DE9F04F9DB002AF9946D7F841
:1059080090409E4B93F801A0BAF1000F1ED00646B6
:1059180088461546002842D0994BD3F8F43FAB424D
:1059280063D0002B00F0EC80E91A43F697229142ED
:1059380000F29F80A1F51C510639142940F211810B
:1059480003F51C5510354FF0000ADBE08D4B1B6842
:1059580013F0060F03D16C37BD46BDE8F08F8A4BB4
:105968007B6602223A7000237B70BB70FB7039683B
:105978003966194663F3000163F3410163F3820159
:1059880063F3C50162F38811082262F3532163F3BC
:105998001F5107F160027B4810F02AFFDBE7794BC3
:1059A8001B6813F0070FB7D0784BFB6102233B70DD
:1059B80000237B70BB70FB703A68BA61194663F3C9
:1059C800000163F3410163F3820163F3C50101221E
:1059D80062F38811082262F3532163F31F5107F120
:1059E8001802684810F004FF96E7002D99D0654B1F
:1059F8001B6813F0060FAED06E4688B002AB13F1E9
:105A080010020DD00C213AB10846042901DD604C82
:105A18005C61082807DD9D610B2927DD0C2404E063
:105A28006FF00041EFE76FF01B043AB103213970C2
:105A380000217970B970F9703868186100216FF326
:105A480000016FF341016FF382016FF3C501022377
:105A580063F38811C4F30A0363F353216FF31F51EF
:105A68000023484810F0C4FEB54674E76FF01B04E5
:105A7800DBE7444B1B6803F00703022B42D9EB46D4
:105A880088B002AB13F1100211D00C2052B1844639
:105A9800042803DDDFF800E1C3F814E0BCF1080FC7
:105AA80008DD99610B2828DD4FF00C0C04E06FF03D
:105AB8000040EBE76FF01B0C3AB10321397000216D
:105AC8007970B970F9703868186100216FF30001B6
